{
  "contractName": "Staker",
  "abi": [
    {
      "inputs": [
        {
          "internalType": "address",
          "name": "_tokenA",
          "type": "address"
        },
        {
          "internalType": "address",
          "name": "_tokenB",
          "type": "address"
        },
        {
          "internalType": "uint256",
          "name": "_startTime",
          "type": "uint256"
        },
        {
          "internalType": "uint256",
          "name": "_endTime",
          "type": "uint256"
        }
      ],
      "stateMutability": "nonpayable",
      "type": "constructor"
    },
    {
      "anonymous": false,
      "inputs": [
        {
          "indexed": true,
          "internalType": "address",
          "name": "_user",
          "type": "address"
        },
        {
          "indexed": false,
          "internalType": "uint256",
          "name": "_amount",
          "type": "uint256"
        }
      ],
      "name": "ClaimedRewards",
      "type": "event"
    },
    {
      "anonymous": false,
      "inputs": [
        {
          "indexed": true,
          "internalType": "address",
          "name": "_user",
          "type": "address"
        },
        {
          "indexed": false,
          "internalType": "uint256",
          "name": "_amount",
          "type": "uint256"
        }
      ],
      "name": "Staking",
      "type": "event"
    },
    {
      "anonymous": false,
      "inputs": [
        {
          "indexed": true,
          "internalType": "address",
          "name": "_user",
          "type": "address"
        },
        {
          "indexed": false,
          "internalType": "uint256",
          "name": "_bal",
          "type": "uint256"
        },
        {
          "indexed": false,
          "internalType": "uint256",
          "name": "_reward",
          "type": "uint256"
        }
      ],
      "name": "UnStaked",
      "type": "event"
    },
    {
      "inputs": [],
      "name": "endTime",
      "outputs": [
        {
          "internalType": "uint256",
          "name": "",
          "type": "uint256"
        }
      ],
      "stateMutability": "view",
      "type": "function"
    },
    {
      "inputs": [
        {
          "internalType": "address",
          "name": "",
          "type": "address"
        }
      ],
      "name": "hasStaked",
      "outputs": [
        {
          "internalType": "bool",
          "name": "",
          "type": "bool"
        }
      ],
      "stateMutability": "view",
      "type": "function"
    },
    {
      "inputs": [
        {
          "internalType": "address",
          "name": "",
          "type": "address"
        }
      ],
      "name": "isStaking",
      "outputs": [
        {
          "internalType": "bool",
          "name": "",
          "type": "bool"
        }
      ],
      "stateMutability": "view",
      "type": "function"
    },
    {
      "inputs": [],
      "name": "name",
      "outputs": [
        {
          "internalType": "string",
          "name": "",
          "type": "string"
        }
      ],
      "stateMutability": "view",
      "type": "function"
    },
    {
      "inputs": [
        {
          "internalType": "address",
          "name": "",
          "type": "address"
        }
      ],
      "name": "rewardBalance",
      "outputs": [
        {
          "internalType": "uint256",
          "name": "",
          "type": "uint256"
        }
      ],
      "stateMutability": "view",
      "type": "function"
    },
    {
      "inputs": [],
      "name": "rewardToken",
      "outputs": [
        {
          "internalType": "address",
          "name": "",
          "type": "address"
        }
      ],
      "stateMutability": "view",
      "type": "function"
    },
    {
      "inputs": [],
      "name": "stakeToken",
      "outputs": [
        {
          "internalType": "address",
          "name": "",
          "type": "address"
        }
      ],
      "stateMutability": "view",
      "type": "function"
    },
    {
      "inputs": [
        {
          "internalType": "address",
          "name": "",
          "type": "address"
        }
      ],
      "name": "stakingBalance",
      "outputs": [
        {
          "internalType": "uint256",
          "name": "",
          "type": "uint256"
        }
      ],
      "stateMutability": "view",
      "type": "function"
    },
    {
      "inputs": [],
      "name": "startTime",
      "outputs": [
        {
          "internalType": "uint256",
          "name": "",
          "type": "uint256"
        }
      ],
      "stateMutability": "view",
      "type": "function"
    },
    {
      "inputs": [
        {
          "internalType": "address",
          "name": "",
          "type": "address"
        }
      ],
      "name": "startTimes",
      "outputs": [
        {
          "internalType": "uint256",
          "name": "",
          "type": "uint256"
        }
      ],
      "stateMutability": "view",
      "type": "function"
    },
    {
      "inputs": [
        {
          "internalType": "uint256",
          "name": "_amount",
          "type": "uint256"
        }
      ],
      "name": "stake",
      "outputs": [],
      "stateMutability": "nonpayable",
      "type": "function"
    },
    {
      "inputs": [],
      "name": "unstake",
      "outputs": [],
      "stateMutability": "nonpayable",
      "type": "function"
    },
    {
      "inputs": [
        {
          "internalType": "address",
          "name": "_addr",
          "type": "address"
        },
        {
          "internalType": "uint256",
          "name": "_time",
          "type": "uint256"
        }
      ],
      "name": "calcRewardTime",
      "outputs": [
        {
          "internalType": "uint256",
          "name": "",
          "type": "uint256"
        }
      ],
      "stateMutability": "view",
      "type": "function"
    },
    {
      "inputs": [
        {
          "internalType": "address",
          "name": "_addr",
          "type": "address"
        }
      ],
      "name": "calcRewardTime",
      "outputs": [
        {
          "internalType": "uint256",
          "name": "",
          "type": "uint256"
        }
      ],
      "stateMutability": "view",
      "type": "function"
    },
    {
      "inputs": [
        {
          "internalType": "address",
          "name": "_addr",
          "type": "address"
        }
      ],
      "name": "calcRewardTotal",
      "outputs": [
        {
          "internalType": "uint256",
          "name": "",
          "type": "uint256"
        }
      ],
      "stateMutability": "view",
      "type": "function"
    },
    {
      "inputs": [
        {
          "internalType": "address",
          "name": "_addr",
          "type": "address"
        },
        {
          "internalType": "uint256",
          "name": "_time",
          "type": "uint256"
        }
      ],
      "name": "calcRewardTotal",
      "outputs": [
        {
          "internalType": "uint256",
          "name": "",
          "type": "uint256"
        }
      ],
      "stateMutability": "view",
      "type": "function"
    },
    {
      "inputs": [],
      "name": "claimRewards",
      "outputs": [],
      "stateMutability": "nonpayable",
      "type": "function"
    }
  ],
  "bytecode": "0x60806040526040518060400160405280600681526020017f5374616b6572000000000000000000000000000000000000000000000000000081525060009080519060200190620000519291906200011f565b503480156200005f57600080fd5b5060405162001c0a38038062001c0a8339818101604052810190620000859190620001fd565b83600160006101000a81548173ffffffffffffffffffffffffffffffffffffffff021916908373ffffffffffffffffffffffffffffffffffffffff16021790555082600260006101000a81548173ffffffffffffffffffffffffffffffffffffffff021916908373ffffffffffffffffffffffffffffffffffffffff1602179055508160038190555080600481905550505050506200034b565b8280546200012d90620002ad565b90600052602060002090601f0160209004810192826200015157600085556200019d565b82601f106200016c57805160ff19168380011785556200019d565b828001600101855582156200019d579182015b828111156200019c5782518255916020019190600101906200017f565b5b509050620001ac9190620001b0565b5090565b5b80821115620001cb576000816000905550600101620001b1565b5090565b600081519050620001e08162000317565b92915050565b600081519050620001f78162000331565b92915050565b600080600080608085870312156200021a576200021962000312565b5b60006200022a87828801620001cf565b94505060206200023d87828801620001cf565b93505060406200025087828801620001e6565b92505060606200026387828801620001e6565b91505092959194509250565b60006200027c8262000283565b9050919050565b600073ffffffffffffffffffffffffffffffffffffffff82169050919050565b6000819050919050565b60006002820490506001821680620002c657607f821691505b60208210811415620002dd57620002dc620002e3565b5b50919050565b7f4e487b7100000000000000000000000000000000000000000000000000000000600052602260045260246000fd5b600080fd5b62000322816200026f565b81146200032e57600080fd5b50565b6200033c81620002a3565b81146200034857600080fd5b50565b6118af806200035b6000396000f3fe608060405234801561001057600080fd5b5060043610610128576000357c01000000000000000000000000000000000000000000000000000000009004806378e97925116100bf578063a694fc3a1161008e578063a694fc3a146102d9578063c5063dec146102f5578063c93c8f3414610325578063f53fd4ae14610355578063f7c618c11461038557610128565b806378e979251461022b5780638e7752fd1461024957806395c79ff114610279578063a38b7269146102a957610128565b806345bc78ab116100fb57806345bc78ab1461017d57806351ed6a30146101ad57806367b40cf7146101cb5780636f49712b146101fb57610128565b806306fdde031461012d5780632def66201461014b5780633197cbb614610155578063372500ab14610173575b600080fd5b6101356103a3565b604051610142919061134b565b60405180910390f35b610153610431565b005b61015d61082e565b60405161016a919061142d565b60405180910390f35b61017b610834565b005b610197600480360381019061019291906110b6565b610a60565b6040516101a4919061142d565b60405180910390f35b6101b5610a78565b6040516101c291906112b5565b60405180910390f35b6101e560048036038101906101e091906110b6565b610a9e565b6040516101f2919061142d565b60405180910390f35b610215600480360381019061021091906110b6565b610ab6565b6040516102229190611330565b60405180910390f35b610233610ad6565b604051610240919061142d565b60405180910390f35b610263600480360381019061025e91906110e3565b610adc565b604051610270919061142d565b60405180910390f35b610293600480360381019061028e91906110b6565b610b4c565b6040516102a0919061142d565b60405180910390f35b6102c360048036038101906102be91906110b6565b610b5f565b6040516102d0919061142d565b60405180910390f35b6102f360048036038101906102ee9190611150565b610b72565b005b61030f600480360381019061030a91906110e3565b610f5f565b60405161031c919061142d565b60405180910390f35b61033f600480360381019061033a91906110b6565b611003565b60405161034c9190611330565b60405180910390f35b61036f600480360381019061036a91906110b6565b611023565b60405161037c919061142d565b60405180910390f35b61038d61103b565b60405161039a91906112b5565b60405180910390f35b600080546103b09061161d565b80601f01602080910402602001604051908101604052809291908181526020018280546103dc9061161d565b80156104295780601f106103fe57610100808354040283529160200191610429565b820191906000526020600020905b81548152906001019060200180831161040c57829003601f168201915b505050505081565b600760003373ffffffffffffffffffffffffffffffffffffffff1673ffffffffffffffffffffffffffffffffffffffff16815260200190815260200160002060009054906101000a900460ff166104bd576040517f08c379a00000000000000000000000000000000000000000000000000000000081526004016104b4906113cd565b60405180910390fd5b6000600560003373ffffffffffffffffffffffffffffffffffffffff1673ffffffffffffffffffffffffffffffffffffffff168152602001908152602001600020541161053f576040517f08c379a00000000000000000000000000000000000000000000000000000000081526004016105369061136d565b60405180910390fd5b600061054a33610b5f565b9050600081111561055e5761055d610834565b5b6000600160009054906101000a900473ffffffffffffffffffffffffffffffffffffffff1690508073ffffffffffffffffffffffffffffffffffffffff1663a9059cbb33600560003373ffffffffffffffffffffffffffffffffffffffff1673ffffffffffffffffffffffffffffffffffffffff168152602001908152602001600020546040518363ffffffff167c010000000000000000000000000000000000000000000000000000000002815260040161061b929190611307565b602060405180830381600087803b15801561063557600080fd5b505af1158015610649573d6000803e3d6000fd5b505050506040513d601f19601f8201168201806040525081019061066d9190611123565b506000600560003373ffffffffffffffffffffffffffffffffffffffff1673ffffffffffffffffffffffffffffffffffffffff1681526020019081526020016000205490506000600760003373ffffffffffffffffffffffffffffffffffffffff1673ffffffffffffffffffffffffffffffffffffffff16815260200190815260200160002060006101000a81548160ff0219169083151502179055506000600860003373ffffffffffffffffffffffffffffffffffffffff1673ffffffffffffffffffffffffffffffffffffffff168152602001908152602001600020819055506000600660003373ffffffffffffffffffffffffffffffffffffffff1673ffffffffffffffffffffffffffffffffffffffff168152602001908152602001600020819055506000600560003373ffffffffffffffffffffffffffffffffffffffff1673ffffffffffffffffffffffffffffffffffffffff168152602001908152602001600020819055503373ffffffffffffffffffffffffffffffffffffffff167ff26c0304cc83daf500e1dc22ab2e3cf954b3d506d62e34d70cc054255079e3978285604051610821929190611448565b60405180910390a2505050565b60045481565b6000610890600660003373ffffffffffffffffffffffffffffffffffffffff1673ffffffffffffffffffffffffffffffffffffffff1681526020019081526020016000205461088233610b5f565b61106190919063ffffffff16565b9050600081116108d5576040517f08c379a00000000000000000000000000000000000000000000000000000000081526004016108cc9061138d565b60405180910390fd5b6000600260009054906101000a900473ffffffffffffffffffffffffffffffffffffffff1690508073ffffffffffffffffffffffffffffffffffffffff166340c10f1933846040518363ffffffff167c0100000000000000000000000000000000000000000000000000000000028152600401610953929190611307565b600060405180830381600087803b15801561096d57600080fd5b505af1158015610981573d6000803e3d6000fd5b505050506000600660003373ffffffffffffffffffffffffffffffffffffffff1673ffffffffffffffffffffffffffffffffffffffff1681526020019081526020016000208190555042600860003373ffffffffffffffffffffffffffffffffffffffff1673ffffffffffffffffffffffffffffffffffffffff168152602001908152602001600020819055503373ffffffffffffffffffffffffffffffffffffffff167f2d5429efdeca7741a8cd94067b18d988bc4e5f1d5b8272c37b7bfc31e9bfa32c83604051610a54919061142d565b60405180910390a25050565b60056020528060005260406000206000915090505481565b600160009054906101000a900473ffffffffffffffffffffffffffffffffffffffff1681565b60066020528060005260406000206000915090505481565b60076020528060005260406000206000915054906101000a900460ff1681565b60035481565b600080829050600454811015610af25780610af6565b6004545b9050600860008573ffffffffffffffffffffffffffffffffffffffff1673ffffffffffffffffffffffffffffffffffffffff1681526020019081526020016000205481610b43919061156e565b91505092915050565b6000610b588242610adc565b9050919050565b6000610b6b8242610f5f565b9050919050565b600354421015610bb7576040517f08c379a0000000000000000000000000000000000000000000000000000000008152600401610bae9061140d565b60405180910390fd5b600454421115610bfc576040517f08c379a0000000000000000000000000000000000000000000000000000000008152600401610bf3906113ad565b60405180910390fd5b60008111610c3f576040517f08c379a0000000000000000000000000000000000000000000000000000000008152600401610c36906113ed565b60405180910390fd5b600760003373ffffffffffffffffffffffffffffffffffffffff1673ffffffffffffffffffffffffffffffffffffffff16815260200190815260200160002060009054906101000a900460ff1615610cf057610c9a33610b5f565b600660003373ffffffffffffffffffffffffffffffffffffffff1673ffffffffffffffffffffffffffffffffffffffff1681526020019081526020016000206000828254610ce8919061148d565b925050819055505b6000600160009054906101000a900473ffffffffffffffffffffffffffffffffffffffff1690508073ffffffffffffffffffffffffffffffffffffffff166323b872dd3330856040518463ffffffff167c0100000000000000000000000000000000000000000000000000000000028152600401610d70939291906112d0565b602060405180830381600087803b158015610d8a57600080fd5b505af1158015610d9e573d6000803e3d6000fd5b505050506040513d601f19601f82011682018060405250810190610dc29190611123565b506001600760003373ffffffffffffffffffffffffffffffffffffffff1673ffffffffffffffffffffffffffffffffffffffff16815260200190815260200160002060006101000a81548160ff02191690831515021790555042600860003373ffffffffffffffffffffffffffffffffffffffff1673ffffffffffffffffffffffffffffffffffffffff1681526020019081526020016000208190555081600560003373ffffffffffffffffffffffffffffffffffffffff1673ffffffffffffffffffffffffffffffffffffffff1681526020019081526020016000206000828254610eae919061148d565b925050819055506001600960003373ffffffffffffffffffffffffffffffffffffffff1673ffffffffffffffffffffffffffffffffffffffff16815260200190815260200160002060006101000a81548160ff0219169083151502179055503373ffffffffffffffffffffffffffffffffffffffff167fb831f69f1cebc12b23cd864ce5bfea2669d01956050a0147d71d418074559c2183604051610f53919061142d565b60405180910390a25050565b60008068056bc75e2d631000009050600062015180905060008183610f8491906114e3565b9050670de0b6b3a7640000600560008873ffffffffffffffffffffffffffffffffffffffff1673ffffffffffffffffffffffffffffffffffffffff16815260200190815260200160002054610fd991906114e3565b81610fe48888610adc565b610fee9190611514565b610ff89190611514565b935050505092915050565b60096020528060005260406000206000915054906101000a900460ff1681565b60086020528060005260406000206000915090505481565b600260009054906101000a900473ffffffffffffffffffffffffffffffffffffffff1681565b6000818361106f919061148d565b905092915050565b60008135905061108681611834565b92915050565b60008151905061109b8161184b565b92915050565b6000813590506110b081611862565b92915050565b6000602082840312156110cc576110cb6116dc565b5b60006110da84828501611077565b91505092915050565b600080604083850312156110fa576110f96116dc565b5b600061110885828601611077565b9250506020611119858286016110a1565b9150509250929050565b600060208284031215611139576111386116dc565b5b60006111478482850161108c565b91505092915050565b600060208284031215611166576111656116dc565b5b6000611174848285016110a1565b91505092915050565b611186816115a2565b82525050565b611195816115b4565b82525050565b60006111a682611471565b6111b0818561147c565b93506111c08185602086016115ea565b6111c9816116e1565b840191505092915050565b60006111e1602a8361147c565b91506111ec826116f2565b604082019050919050565b600061120460178361147c565b915061120f82611741565b602082019050919050565b600061122760188361147c565b91506112328261176a565b602082019050919050565b600061124a600e8361147c565b915061125582611793565b602082019050919050565b600061126d60308361147c565b9150611278826117bc565b604082019050919050565b600061129060108361147c565b915061129b8261180b565b602082019050919050565b6112af816115e0565b82525050565b60006020820190506112ca600083018461117d565b92915050565b60006060820190506112e5600083018661117d565b6112f2602083018561117d565b6112ff60408301846112a6565b949350505050565b600060408201905061131c600083018561117d565b61132960208301846112a6565b9392505050565b6000602082019050611345600083018461118c565b92915050565b60006020820190508181036000830152611365818461119b565b905092915050565b60006020820190508181036000830152611386816111d4565b9050919050565b600060208201905081810360008301526113a6816111f7565b9050919050565b600060208201905081810360008301526113c68161121a565b9050919050565b600060208201905081810360008301526113e68161123d565b9050919050565b6000602082019050818103600083015261140681611260565b9050919050565b6000602082019050818103600083015261142681611283565b9050919050565b600060208201905061144260008301846112a6565b92915050565b600060408201905061145d60008301856112a6565b61146a60208301846112a6565b9392505050565b600081519050919050565b600082825260208201905092915050565b6000611498826115e0565b91506114a3836115e0565b9250827fffffffffffffffffffffffffffffffffffffffffffffffffffffffffffffffff038211156114d8576114d761164f565b5b828201905092915050565b60006114ee826115e0565b91506114f9836115e0565b9250826115095761150861167e565b5b828204905092915050565b600061151f826115e0565b915061152a836115e0565b9250817fffffffffffffffffffffffffffffffffffffffffffffffffffffffffffffffff04831182151516156115635761156261164f565b5b828202905092915050565b6000611579826115e0565b9150611584836115e0565b9250828210156115975761159661164f565b5b828203905092915050565b60006115ad826115c0565b9050919050565b60008115159050919050565b600073ffffffffffffffffffffffffffffffffffffffff82169050919050565b6000819050919050565b60005b838110156116085780820151818401526020810190506115ed565b83811115611617576000848401525b50505050565b6000600282049050600182168061163557607f821691505b60208210811415611649576116486116ad565b5b50919050565b7f4e487b7100000000000000000000000000000000000000000000000000000000600052601160045260246000fd5b7f4e487b7100000000000000000000000000000000000000000000000000000000600052601260045260246000fd5b7f4e487b7100000000000000000000000000000000000000000000000000000000600052602260045260246000fd5b600080fd5b6000601f19601f8301169050919050565b7f4d75737420686176652061207374616b696e672062616c616e6365206772656160008201527f746572207468616e203000000000000000000000000000000000000000000000602082015250565b7f4e6f207265776172647320617420746869732074696d65000000000000000000600082015250565b7f506173736564207468652074696d6520746f207374616b650000000000000000600082015250565b7f4973206e6f74207374616b696e67000000000000000000000000000000000000600082015250565b7f4d757374207374616b65206d6f7265207468616e203020746f6b656e7320696e60008201527f206f7264657220746f20737465616b2e00000000000000000000000000000000602082015250565b7f4e6f742073746172746564207965742e00000000000000000000000000000000600082015250565b61183d816115a2565b811461184857600080fd5b50565b611854816115b4565b811461185f57600080fd5b50565b61186b816115e0565b811461187657600080fd5b5056fea2646970667358221220cc3be36793e2e17a5b500d63e82f39ea8701ced25b065b9d67d37fcd6c262e6464736f6c63430008070033",
  "immutableReferences": {},
  "source": "// SPDX-License-Identifier: MIT\npragma solidity >=0.4.22 <0.9.0;\n\nimport \"@openzeppelin/contracts/utils/math/SafeMath.sol\";\nimport \"@openzeppelin/contracts/token/ERC20/IERC20.sol\";\nimport \"./IToken.sol\";\n\ncontract Staker {\n  using SafeMath for uint;\n\n  string public name = \"Staker\";\n  address public stakeToken;\n  address public rewardToken;\n  uint public startTime;\n  uint public endTime;\n\n  mapping (address => uint) public stakingBalance;\n  mapping (address => uint) public rewardBalance;\n  mapping (address => bool) public isStaking;\n  mapping (address => uint) public startTimes;\n  mapping (address => bool) public hasStaked; //just a record if the user staked before or not\n\n  constructor(address _tokenA, address _tokenB, uint _startTime, uint _endTime) public {\n    stakeToken = _tokenA;\n    rewardToken = _tokenB;\n    startTime = _startTime;\n    endTime = _endTime;\n  }\n\n  modifier inStakeTime {\n    require(block.timestamp >= startTime, \"Not started yet.\");\n    require(block.timestamp <= endTime, \"Passed the time to stake\");\n    _;\n  }\n\n  event Staking(address indexed _user, uint _amount);\n  event UnStaked(address indexed _user, uint _bal, uint _reward);\n  event ClaimedRewards(address indexed _user, uint _amount);\n\n  function stake(uint _amount) external inStakeTime {\n    require(_amount > 0, \"Must stake more than 0 tokens in order to steak.\");\n\n    if (isStaking[msg.sender]) {\n      //caputure current amounts\n      rewardBalance[msg.sender] += calcRewardTotal(msg.sender);\n    }\n    IERC20 st = IERC20(stakeToken);\n    st.transferFrom(msg.sender, address(this), _amount);\n    isStaking[msg.sender] = true;\n    startTimes[msg.sender] = block.timestamp;\n    stakingBalance[msg.sender] += _amount;\n    hasStaked[msg.sender] = true;\n    emit Staking(msg.sender, _amount);\n  }\n\n  function unstake() external {\n    //this function will claim their rewards and transfer back their original tokens\n    require(isStaking[msg.sender], \"Is not staking\");\n    require(stakingBalance[msg.sender] > 0, \"Must have a staking balance greater than 0\");\n    uint rewards = calcRewardTotal(msg.sender);\n    if (rewards > 0) {\n      claimRewards();\n    }\n    IERC20 st = IERC20(stakeToken);\n    st.transfer(msg.sender, stakingBalance[msg.sender]);\n    uint bal = stakingBalance[msg.sender];\n    //clear out the vars\n    isStaking[msg.sender] = false;\n    startTimes[msg.sender] = 0;\n    rewardBalance[msg.sender] = 0;\n    stakingBalance[msg.sender] = 0;\n    //event\n    emit UnStaked(msg.sender, bal, rewards);\n  }\n\n  function calcRewardTime(address _addr, uint _time) public view returns (uint) {\n    uint time = _time;\n    time = time >= endTime ? endTime : time;\n    return time - startTimes[_addr];\n  }\n\n  function calcRewardTime(address _addr) public view returns (uint) {\n    // uint time = block.timestamp;\n    // time = time >= endTime ? endTime : time;\n    // return time - startTimes[_addr];\n    return calcRewardTime(_addr, block.timestamp);\n  }\n\n  function calcRewardTotal(address _addr, uint _time) public view returns (uint) {\n    /* NOTES FOR HOW TO CALCULATE REWARDS\n    A user can earn up to 100 tokens a day per token\n    100 = 100 * 10**18 =   100000000000000000000\n\n    how many seconds there are in a day\n    24*60*60 = 86400\n\n    convert the seconds to wei\n    86400 * 10**18 = 86400000000000000000000\n\n    so you would earn this many tokens per second\n    100000000000000000000 / 86400000000000000000000 = 0.00115740740740740740740740740741 tokens per second\n\n    so the formula would be\n    rate = 0.00115740740740740740740740740741 * 10**18 = 1157407407407407.4074074074074074\n    bal = current balance staked / 10**18\n    timeStaked = (currentTime - startTimeStaked)\n    rateTime = (timeStaked * rate)\n    rewards = rateTime * bal\n\n\n    Staking for 2 days with 1000 tokens\n    rate = 0.00115740740740740740740740740741 * 10**18 = 1157407407407407.4074074074074074\n    timeStaked = 86400*2 = 172800\n    bal = (1000 * 10**18) / 10**18\n    rateTime = (timeStaked * rate) = 200000000000000000000\n    rewards =  rateTime * bal = 200000000000000000000000\n\n    one-liner formula\n    rewards = ((timeStaked * rate) * (bal/10**18))\n    */\n    //100 tokens per day\n    uint earnPerDay = 100 * 10**18;\n    uint secondsPerDay = 60 * 60 * 24;\n    uint rate = earnPerDay / secondsPerDay;\n    return (calcRewardTime(_addr, _time) * rate) * (stakingBalance[_addr]/10**18);\n  }\n\n  function calcRewardTotal(address _addr) public view returns (uint) {\n    return calcRewardTotal(_addr, block.timestamp);\n  }\n\n  function claimRewards() public {\n    uint rewards = calcRewardTotal(msg.sender).add(rewardBalance[msg.sender]);\n    require(rewards > 0, \"No rewards at this time\");\n    IToken rt = IToken(rewardToken);\n    rt.mint(msg.sender, rewards);\n    rewardBalance[msg.sender] = 0;\n    startTimes[msg.sender] = block.timestamp;\n    emit ClaimedRewards(msg.sender, rewards);\n  }\n}\n",
  "sourcePath": "C:\\Users\\surge\\Desktop\\dapp-projects\\staker-demo\\contracts\\Staker.sol",
  "compiler": {
    "name": "solc",
    "version": "0.8.7+commit.e28d00a7.Emscripten.clang"
  },
  "schemaVersion": "3.4.3",
  "updatedAt": "2023-08-12T22:22:31.273Z",
  "devdoc": {
    "kind": "dev",
    "methods": {},
    "version": 1
  },
  "userdoc": {
    "kind": "user",
    "methods": {},
    "version": 1
  }
}