{
  "contractName": "StakerFactory",
  "abi": [
    {
      "anonymous": false,
      "inputs": [
        {
          "indexed": true,
          "internalType": "address",
          "name": "_token",
          "type": "address"
        },
        {
          "indexed": true,
          "internalType": "address",
          "name": "_user",
          "type": "address"
        },
        {
          "indexed": false,
          "internalType": "uint256",
          "name": "_amount",
          "type": "uint256"
        }
      ],
      "name": "FacetTokensToUser",
      "type": "event"
    },
    {
      "anonymous": false,
      "inputs": [
        {
          "indexed": true,
          "internalType": "address",
          "name": "_stakeAddress",
          "type": "address"
        }
      ],
      "name": "FarmAdded",
      "type": "event"
    },
    {
      "anonymous": false,
      "inputs": [
        {
          "indexed": true,
          "internalType": "address",
          "name": "previousOwner",
          "type": "address"
        },
        {
          "indexed": true,
          "internalType": "address",
          "name": "newOwner",
          "type": "address"
        }
      ],
      "name": "OwnershipTransferred",
      "type": "event"
    },
    {
      "inputs": [],
      "name": "FAUCET_AMOUNT",
      "outputs": [
        {
          "internalType": "uint256",
          "name": "",
          "type": "uint256"
        }
      ],
      "stateMutability": "view",
      "type": "function",
      "constant": true
    },
    {
      "inputs": [],
      "name": "FAUCET_TIME",
      "outputs": [
        {
          "internalType": "uint256",
          "name": "",
          "type": "uint256"
        }
      ],
      "stateMutability": "view",
      "type": "function",
      "constant": true
    },
    {
      "inputs": [
        {
          "internalType": "uint256",
          "name": "",
          "type": "uint256"
        }
      ],
      "name": "farms",
      "outputs": [
        {
          "internalType": "address",
          "name": "",
          "type": "address"
        }
      ],
      "stateMutability": "view",
      "type": "function",
      "constant": true
    },
    {
      "inputs": [
        {
          "internalType": "address",
          "name": "",
          "type": "address"
        },
        {
          "internalType": "address",
          "name": "",
          "type": "address"
        }
      ],
      "name": "faucetTimes",
      "outputs": [
        {
          "internalType": "uint256",
          "name": "",
          "type": "uint256"
        }
      ],
      "stateMutability": "view",
      "type": "function",
      "constant": true
    },
    {
      "inputs": [],
      "name": "owner",
      "outputs": [
        {
          "internalType": "address",
          "name": "",
          "type": "address"
        }
      ],
      "stateMutability": "view",
      "type": "function",
      "constant": true
    },
    {
      "inputs": [],
      "name": "renounceOwnership",
      "outputs": [],
      "stateMutability": "nonpayable",
      "type": "function"
    },
    {
      "inputs": [],
      "name": "totalFarms",
      "outputs": [
        {
          "internalType": "uint256",
          "name": "",
          "type": "uint256"
        }
      ],
      "stateMutability": "view",
      "type": "function",
      "constant": true
    },
    {
      "inputs": [
        {
          "internalType": "address",
          "name": "newOwner",
          "type": "address"
        }
      ],
      "name": "transferOwnership",
      "outputs": [],
      "stateMutability": "nonpayable",
      "type": "function"
    },
    {
      "inputs": [
        {
          "internalType": "address",
          "name": "_tokenA",
          "type": "address"
        },
        {
          "internalType": "address",
          "name": "_tokenB",
          "type": "address"
        },
        {
          "internalType": "uint256",
          "name": "startTime",
          "type": "uint256"
        },
        {
          "internalType": "uint256",
          "name": "endTime",
          "type": "uint256"
        }
      ],
      "name": "createFarm",
      "outputs": [],
      "stateMutability": "nonpayable",
      "type": "function"
    },
    {
      "inputs": [],
      "name": "getFarms",
      "outputs": [
        {
          "components": [
            {
              "internalType": "address",
              "name": "farm",
              "type": "address"
            },
            {
              "internalType": "address",
              "name": "stake",
              "type": "address"
            },
            {
              "internalType": "address",
              "name": "reward",
              "type": "address"
            },
            {
              "internalType": "uint256",
              "name": "startTime",
              "type": "uint256"
            },
            {
              "internalType": "uint256",
              "name": "endTime",
              "type": "uint256"
            }
          ],
          "internalType": "struct StakerFactory.Farm[]",
          "name": "",
          "type": "tuple[]"
        }
      ],
      "stateMutability": "view",
      "type": "function",
      "constant": true
    },
    {
      "inputs": [
        {
          "internalType": "address",
          "name": "_tokenAddr",
          "type": "address"
        },
        {
          "internalType": "address",
          "name": "_user",
          "type": "address"
        }
      ],
      "name": "faucetTokens",
      "outputs": [],
      "stateMutability": "nonpayable",
      "type": "function"
    }
  ],
  "bytecode": "0x608060405262015180600455683635c9adc5dea0000060055534801561002457600080fd5b5061005361003f610058640100000000026401000000009004565b610060640100000000026401000000009004565b610124565b600033905090565b60008060009054906101000a900473ffffffffffffffffffffffffffffffffffffffff169050816000806101000a81548173ffffffffffffffffffffffffffffffffffffffff021916908373ffffffffffffffffffffffffffffffffffffffff1602179055508173ffffffffffffffffffffffffffffffffffffffff168173ffffffffffffffffffffffffffffffffffffffff167f8be0079c531659141344cd1fd0a4f28419497f9722a3daafe3b4186f6b6457e060405160405180910390a35050565b6133a4806101336000396000f3fe60806040523480156200001157600080fd5b5060043610620000d5576000357c01000000000000000000000000000000000000000000000000000000009004806376697640116200009857806376697640146200016a5780637da470ea146200018c5780638da5cb5b14620001c25780639dc4ac8a14620001e4578063c8da38651462000206578063f2fde38b146200023c57620000d5565b80634c995a7f14620000da5780634febcb3414620000fc578063550c9fd7146200011c5780636bcfa4f9146200013c578063715018a6146200015e575b600080fd5b620000e46200025c565b604051620000f391906200145e565b60405180910390f35b6200011a60048036038101906200011491906200106f565b62000262565b005b6200013a600480360381019062000134919062001028565b62000475565b005b62000146620007ea565b6040516200015591906200145e565b60405180910390f35b62000168620007f0565b005b6200017462000881565b6040516200018391906200145e565b60405180910390f35b620001aa6004803603810190620001a49190620010e1565b62000887565b604051620001b991906200131b565b60405180910390f35b620001cc620008ba565b604051620001db91906200131b565b60405180910390f35b620001ee620008e3565b604051620001fd9190620013b2565b60405180910390f35b6200022460048036038101906200021e919062001028565b62000cdc565b6040516200023391906200145e565b60405180910390f35b6200025a600480360381019062000254919062000fc4565b62000d01565b005b60025481565b6200026c62000e05565b73ffffffffffffffffffffffffffffffffffffffff166200028c620008ba565b73ffffffffffffffffffffffffffffffffffffffff1614620002e5576040517f08c379a0000000000000000000000000000000000000000000000000000000008152600401620002dc906200141a565b60405180910390fd5b600084848484604051620002f99062000ee9565b62000308949392919062001338565b604051809103906000f08015801562000325573d6000803e3d6000fd5b5090508060016000600254815260200190815260200160002060006101000a81548173ffffffffffffffffffffffffffffffffffffffff021916908373ffffffffffffffffffffffffffffffffffffffff16021790555060008490508073ffffffffffffffffffffffffffffffffffffffff1663bcfafa1f836040518263ffffffff167c0100000000000000000000000000000000000000000000000000000000028152600401620003d891906200131b565b600060405180830381600087803b158015620003f357600080fd5b505af115801562000408573d6000803e3d6000fd5b5050505062000424600160025462000e0d90919063ffffffff16565b6002819055508173ffffffffffffffffffffffffffffffffffffffff167fbfca0af3a33c0bcae29f7d07934c90e392c5d6c2ba686ce898528ee63bea8f5260405160405180910390a2505050505050565b6000600360008473ffffffffffffffffffffffffffffffffffffffff1673ffffffffffffffffffffffffffffffffffffffff16815260200190815260200160002060008373ffffffffffffffffffffffffffffffffffffffff1673ffffffffffffffffffffffffffffffffffffffff16815260200190815260200160002054905060008114806200051457504260045482620005129190620014c5565b105b62000556576040517f08c379a00000000000000000000000000000000000000000000000000000000081526004016200054d906200143c565b60405180910390fd5b42600360008573ffffffffffffffffffffffffffffffffffffffff1673ffffffffffffffffffffffffffffffffffffffff16815260200190815260200160002060008473ffffffffffffffffffffffffffffffffffffffff1673ffffffffffffffffffffffffffffffffffffffff1681526020019081526020016000208190555060008390503073ffffffffffffffffffffffffffffffffffffffff168173ffffffffffffffffffffffffffffffffffffffff16638da5cb5b6040518163ffffffff167c0100000000000000000000000000000000000000000000000000000000028152600401602060405180830381600087803b1580156200065857600080fd5b505af11580156200066d573d6000803e3d6000fd5b505050506040513d601f19601f8201168201806040525081019062000693919062000ff6565b73ffffffffffffffffffffffffffffffffffffffff1614620006ec576040517f08c379a0000000000000000000000000000000000000000000000000000000008152600401620006e390620013f8565b60405180910390fd5b8073ffffffffffffffffffffffffffffffffffffffff166340c10f19846005546040518363ffffffff167c01000000000000000000000000000000000000000000000000000000000281526004016200074792919062001385565b600060405180830381600087803b1580156200076257600080fd5b505af115801562000777573d6000803e3d6000fd5b505050508273ffffffffffffffffffffffffffffffffffffffff168473ffffffffffffffffffffffffffffffffffffffff167fcb1e505bab937ab1f850d82a9b346a4546a066a458132dd1c22f7fb547b3d801600554604051620007dc91906200145e565b60405180910390a350505050565b60045481565b620007fa62000e05565b73ffffffffffffffffffffffffffffffffffffffff166200081a620008ba565b73ffffffffffffffffffffffffffffffffffffffff161462000873576040517f08c379a00000000000000000000000000000000000000000000000000000000081526004016200086a906200141a565b60405180910390fd5b6200087f600062000e25565b565b60055481565b60016020528060005260406000206000915054906101000a900473ffffffffffffffffffffffffffffffffffffffff1681565b60008060009054906101000a900473ffffffffffffffffffffffffffffffffffffffff16905090565b6060600060025467ffffffffffffffff8111156200090657620009056200160c565b5b6040519080825280602002602001820160405280156200094357816020015b6200092f62000ef7565b815260200190600190039081620009255790505b50905060005b60025481101562000cd45760006001600083815260200190815260200160002060009054906101000a900473ffffffffffffffffffffffffffffffffffffffff1690506040518060a001604052806001600085815260200190815260200160002060009054906101000a900473ffffffffffffffffffffffffffffffffffffffff1673ffffffffffffffffffffffffffffffffffffffff1681526020018273ffffffffffffffffffffffffffffffffffffffff166351ed6a306040518163ffffffff167c010000000000000000000000000000000000000000000000000000000002815260040160206040518083038186803b15801562000a4957600080fd5b505afa15801562000a5e573d6000803e3d6000fd5b505050506040513d601f19601f8201168201806040525081019062000a84919062000ff6565b73ffffffffffffffffffffffffffffffffffffffff1681526020018273ffffffffffffffffffffffffffffffffffffffff1663f7c618c16040518163ffffffff167c010000000000000000000000000000000000000000000000000000000002815260040160206040518083038186803b15801562000b0257600080fd5b505afa15801562000b17573d6000803e3d6000fd5b505050506040513d601f19601f8201168201806040525081019062000b3d919062000ff6565b73ffffffffffffffffffffffffffffffffffffffff1681526020018273ffffffffffffffffffffffffffffffffffffffff166378e979256040518163ffffffff167c010000000000000000000000000000000000000000000000000000000002815260040160206040518083038186803b15801562000bbb57600080fd5b505afa15801562000bd0573d6000803e3d6000fd5b505050506040513d601f19601f8201168201806040525081019062000bf6919062001113565b81526020018273ffffffffffffffffffffffffffffffffffffffff16633197cbb66040518163ffffffff167c010000000000000000000000000000000000000000000000000000000002815260040160206040518083038186803b15801562000c5e57600080fd5b505afa15801562000c73573d6000803e3d6000fd5b505050506040513d601f19601f8201168201806040525081019062000c99919062001113565b81525083838151811062000cb25762000cb1620015dd565b5b602002602001018190525050808062000ccb9062001560565b91505062000949565b508091505090565b6003602052816000526040600020602052806000526040600020600091509150505481565b62000d0b62000e05565b73ffffffffffffffffffffffffffffffffffffffff1662000d2b620008ba565b73ffffffffffffffffffffffffffffffffffffffff161462000d84576040517f08c379a000000000000000000000000000000000000000000000000000000000815260040162000d7b906200141a565b60405180910390fd5b600073ffffffffffffffffffffffffffffffffffffffff168173ffffffffffffffffffffffffffffffffffffffff16141562000df7576040517f08c379a000000000000000000000000000000000000000000000000000000000815260040162000dee90620013d6565b60405180910390fd5b62000e028162000e25565b50565b600033905090565b6000818362000e1d9190620014c5565b905092915050565b60008060009054906101000a900473ffffffffffffffffffffffffffffffffffffffff169050816000806101000a81548173ffffffffffffffffffffffffffffffffffffffff021916908373ffffffffffffffffffffffffffffffffffffffff1602179055508173ffffffffffffffffffffffffffffffffffffffff168173ffffffffffffffffffffffffffffffffffffffff167f8be0079c531659141344cd1fd0a4f28419497f9722a3daafe3b4186f6b6457e060405160405180910390a35050565b611c0a806200176583390190565b6040518060a00160405280600073ffffffffffffffffffffffffffffffffffffffff168152602001600073ffffffffffffffffffffffffffffffffffffffff168152602001600073ffffffffffffffffffffffffffffffffffffffff16815260200160008152602001600081525090565b60008135905062000f798162001730565b92915050565b60008151905062000f908162001730565b92915050565b60008135905062000fa7816200174a565b92915050565b60008151905062000fbe816200174a565b92915050565b60006020828403121562000fdd5762000fdc6200163b565b5b600062000fed8482850162000f68565b91505092915050565b6000602082840312156200100f576200100e6200163b565b5b60006200101f8482850162000f7f565b91505092915050565b600080604083850312156200104257620010416200163b565b5b6000620010528582860162000f68565b9250506020620010658582860162000f68565b9150509250929050565b600080600080608085870312156200108c576200108b6200163b565b5b60006200109c8782880162000f68565b9450506020620010af8782880162000f68565b9350506040620010c28782880162000f96565b9250506060620010d58782880162000f96565b91505092959194509250565b600060208284031215620010fa57620010f96200163b565b5b60006200110a8482850162000f96565b91505092915050565b6000602082840312156200112c576200112b6200163b565b5b60006200113c8482850162000fad565b91505092915050565b600062001153838362001287565b60a08301905092915050565b6200116a8162001522565b82525050565b6200117b8162001522565b82525050565b60006200118e826200148b565b6200119a8185620014a3565b9350620011a7836200147b565b8060005b83811015620011de578151620011c2888262001145565b9750620011cf8362001496565b925050600181019050620011ab565b5085935050505092915050565b6000620011fa602683620014b4565b9150620012078262001640565b604082019050919050565b600062001221602283620014b4565b91506200122e826200168f565b604082019050919050565b600062001248602083620014b4565b91506200125582620016de565b602082019050919050565b60006200126f601e83620014b4565b91506200127c8262001707565b602082019050919050565b60a0820160008201516200129f60008501826200115f565b506020820151620012b460208501826200115f565b506040820151620012c960408501826200115f565b506060820151620012de6060850182620012f9565b506080820151620012f36080850182620012f9565b50505050565b620013048162001556565b82525050565b620013158162001556565b82525050565b600060208201905062001332600083018462001170565b92915050565b60006080820190506200134f600083018762001170565b6200135e602083018662001170565b6200136d60408301856200130a565b6200137c60608301846200130a565b95945050505050565b60006040820190506200139c600083018562001170565b620013ab60208301846200130a565b9392505050565b60006020820190508181036000830152620013ce818462001181565b905092915050565b60006020820190508181036000830152620013f181620011eb565b9050919050565b60006020820190508181036000830152620014138162001212565b9050919050565b60006020820190508181036000830152620014358162001239565b9050919050565b60006020820190508181036000830152620014578162001260565b9050919050565b60006020820190506200147560008301846200130a565b92915050565b6000819050602082019050919050565b600081519050919050565b6000602082019050919050565b600082825260208201905092915050565b600082825260208201905092915050565b6000620014d28262001556565b9150620014df8362001556565b9250827fffffffffffffffffffffffffffffffffffffffffffffffffffffffffffffffff03821115620015175762001516620015ae565b5b828201905092915050565b60006200152f8262001536565b9050919050565b600073ffffffffffffffffffffffffffffffffffffffff82169050919050565b6000819050919050565b60006200156d8262001556565b91507fffffffffffffffffffffffffffffffffffffffffffffffffffffffffffffffff821415620015a357620015a2620015ae565b5b600182019050919050565b7f4e487b7100000000000000000000000000000000000000000000000000000000600052601160045260246000fd5b7f4e487b7100000000000000000000000000000000000000000000000000000000600052603260045260246000fd5b7f4e487b7100000000000000000000000000000000000000000000000000000000600052604160045260246000fd5b600080fd5b7f4f776e61626c653a206e6577206f776e657220697320746865207a65726f206160008201527f6464726573730000000000000000000000000000000000000000000000000000602082015250565b7f43616e6e6f742066617563657420746865736520746f6b656e7320746f20757360008201527f6572000000000000000000000000000000000000000000000000000000000000602082015250565b7f4f776e61626c653a2063616c6c6572206973206e6f7420746865206f776e6572600082015250565b7f596f752063616e6e6f7420676574206d6f726520746f6b656e73206e6f770000600082015250565b6200173b8162001522565b81146200174757600080fd5b50565b620017558162001556565b81146200176157600080fd5b5056fe60806040526040518060400160405280600681526020017f5374616b6572000000000000000000000000000000000000000000000000000081525060009080519060200190620000519291906200011f565b503480156200005f57600080fd5b5060405162001c0a38038062001c0a8339818101604052810190620000859190620001fd565b83600160006101000a81548173ffffffffffffffffffffffffffffffffffffffff021916908373ffffffffffffffffffffffffffffffffffffffff16021790555082600260006101000a81548173ffffffffffffffffffffffffffffffffffffffff021916908373ffffffffffffffffffffffffffffffffffffffff1602179055508160038190555080600481905550505050506200034b565b8280546200012d90620002ad565b90600052602060002090601f0160209004810192826200015157600085556200019d565b82601f106200016c57805160ff19168380011785556200019d565b828001600101855582156200019d579182015b828111156200019c5782518255916020019190600101906200017f565b5b509050620001ac9190620001b0565b5090565b5b80821115620001cb576000816000905550600101620001b1565b5090565b600081519050620001e08162000317565b92915050565b600081519050620001f78162000331565b92915050565b600080600080608085870312156200021a576200021962000312565b5b60006200022a87828801620001cf565b94505060206200023d87828801620001cf565b93505060406200025087828801620001e6565b92505060606200026387828801620001e6565b91505092959194509250565b60006200027c8262000283565b9050919050565b600073ffffffffffffffffffffffffffffffffffffffff82169050919050565b6000819050919050565b60006002820490506001821680620002c657607f821691505b60208210811415620002dd57620002dc620002e3565b5b50919050565b7f4e487b7100000000000000000000000000000000000000000000000000000000600052602260045260246000fd5b600080fd5b62000322816200026f565b81146200032e57600080fd5b50565b6200033c81620002a3565b81146200034857600080fd5b50565b6118af806200035b6000396000f3fe608060405234801561001057600080fd5b5060043610610128576000357c01000000000000000000000000000000000000000000000000000000009004806378e97925116100bf578063a694fc3a1161008e578063a694fc3a146102d9578063c5063dec146102f5578063c93c8f3414610325578063f53fd4ae14610355578063f7c618c11461038557610128565b806378e979251461022b5780638e7752fd1461024957806395c79ff114610279578063a38b7269146102a957610128565b806345bc78ab116100fb57806345bc78ab1461017d57806351ed6a30146101ad57806367b40cf7146101cb5780636f49712b146101fb57610128565b806306fdde031461012d5780632def66201461014b5780633197cbb614610155578063372500ab14610173575b600080fd5b6101356103a3565b604051610142919061134b565b60405180910390f35b610153610431565b005b61015d61082e565b60405161016a919061142d565b60405180910390f35b61017b610834565b005b610197600480360381019061019291906110b6565b610a60565b6040516101a4919061142d565b60405180910390f35b6101b5610a78565b6040516101c291906112b5565b60405180910390f35b6101e560048036038101906101e091906110b6565b610a9e565b6040516101f2919061142d565b60405180910390f35b610215600480360381019061021091906110b6565b610ab6565b6040516102229190611330565b60405180910390f35b610233610ad6565b604051610240919061142d565b60405180910390f35b610263600480360381019061025e91906110e3565b610adc565b604051610270919061142d565b60405180910390f35b610293600480360381019061028e91906110b6565b610b4c565b6040516102a0919061142d565b60405180910390f35b6102c360048036038101906102be91906110b6565b610b5f565b6040516102d0919061142d565b60405180910390f35b6102f360048036038101906102ee9190611150565b610b72565b005b61030f600480360381019061030a91906110e3565b610f5f565b60405161031c919061142d565b60405180910390f35b61033f600480360381019061033a91906110b6565b611003565b60405161034c9190611330565b60405180910390f35b61036f600480360381019061036a91906110b6565b611023565b60405161037c919061142d565b60405180910390f35b61038d61103b565b60405161039a91906112b5565b60405180910390f35b600080546103b09061161d565b80601f01602080910402602001604051908101604052809291908181526020018280546103dc9061161d565b80156104295780601f106103fe57610100808354040283529160200191610429565b820191906000526020600020905b81548152906001019060200180831161040c57829003601f168201915b505050505081565b600760003373ffffffffffffffffffffffffffffffffffffffff1673ffffffffffffffffffffffffffffffffffffffff16815260200190815260200160002060009054906101000a900460ff166104bd576040517f08c379a00000000000000000000000000000000000000000000000000000000081526004016104b4906113cd565b60405180910390fd5b6000600560003373ffffffffffffffffffffffffffffffffffffffff1673ffffffffffffffffffffffffffffffffffffffff168152602001908152602001600020541161053f576040517f08c379a00000000000000000000000000000000000000000000000000000000081526004016105369061136d565b60405180910390fd5b600061054a33610b5f565b9050600081111561055e5761055d610834565b5b6000600160009054906101000a900473ffffffffffffffffffffffffffffffffffffffff1690508073ffffffffffffffffffffffffffffffffffffffff1663a9059cbb33600560003373ffffffffffffffffffffffffffffffffffffffff1673ffffffffffffffffffffffffffffffffffffffff168152602001908152602001600020546040518363ffffffff167c010000000000000000000000000000000000000000000000000000000002815260040161061b929190611307565b602060405180830381600087803b15801561063557600080fd5b505af1158015610649573d6000803e3d6000fd5b505050506040513d601f19601f8201168201806040525081019061066d9190611123565b506000600560003373ffffffffffffffffffffffffffffffffffffffff1673ffffffffffffffffffffffffffffffffffffffff1681526020019081526020016000205490506000600760003373ffffffffffffffffffffffffffffffffffffffff1673ffffffffffffffffffffffffffffffffffffffff16815260200190815260200160002060006101000a81548160ff0219169083151502179055506000600860003373ffffffffffffffffffffffffffffffffffffffff1673ffffffffffffffffffffffffffffffffffffffff168152602001908152602001600020819055506000600660003373ffffffffffffffffffffffffffffffffffffffff1673ffffffffffffffffffffffffffffffffffffffff168152602001908152602001600020819055506000600560003373ffffffffffffffffffffffffffffffffffffffff1673ffffffffffffffffffffffffffffffffffffffff168152602001908152602001600020819055503373ffffffffffffffffffffffffffffffffffffffff167ff26c0304cc83daf500e1dc22ab2e3cf954b3d506d62e34d70cc054255079e3978285604051610821929190611448565b60405180910390a2505050565b60045481565b6000610890600660003373ffffffffffffffffffffffffffffffffffffffff1673ffffffffffffffffffffffffffffffffffffffff1681526020019081526020016000205461088233610b5f565b61106190919063ffffffff16565b9050600081116108d5576040517f08c379a00000000000000000000000000000000000000000000000000000000081526004016108cc9061138d565b60405180910390fd5b6000600260009054906101000a900473ffffffffffffffffffffffffffffffffffffffff1690508073ffffffffffffffffffffffffffffffffffffffff166340c10f1933846040518363ffffffff167c0100000000000000000000000000000000000000000000000000000000028152600401610953929190611307565b600060405180830381600087803b15801561096d57600080fd5b505af1158015610981573d6000803e3d6000fd5b505050506000600660003373ffffffffffffffffffffffffffffffffffffffff1673ffffffffffffffffffffffffffffffffffffffff1681526020019081526020016000208190555042600860003373ffffffffffffffffffffffffffffffffffffffff1673ffffffffffffffffffffffffffffffffffffffff168152602001908152602001600020819055503373ffffffffffffffffffffffffffffffffffffffff167f2d5429efdeca7741a8cd94067b18d988bc4e5f1d5b8272c37b7bfc31e9bfa32c83604051610a54919061142d565b60405180910390a25050565b60056020528060005260406000206000915090505481565b600160009054906101000a900473ffffffffffffffffffffffffffffffffffffffff1681565b60066020528060005260406000206000915090505481565b60076020528060005260406000206000915054906101000a900460ff1681565b60035481565b600080829050600454811015610af25780610af6565b6004545b9050600860008573ffffffffffffffffffffffffffffffffffffffff1673ffffffffffffffffffffffffffffffffffffffff1681526020019081526020016000205481610b43919061156e565b91505092915050565b6000610b588242610adc565b9050919050565b6000610b6b8242610f5f565b9050919050565b600354421015610bb7576040517f08c379a0000000000000000000000000000000000000000000000000000000008152600401610bae9061140d565b60405180910390fd5b600454421115610bfc576040517f08c379a0000000000000000000000000000000000000000000000000000000008152600401610bf3906113ad565b60405180910390fd5b60008111610c3f576040517f08c379a0000000000000000000000000000000000000000000000000000000008152600401610c36906113ed565b60405180910390fd5b600760003373ffffffffffffffffffffffffffffffffffffffff1673ffffffffffffffffffffffffffffffffffffffff16815260200190815260200160002060009054906101000a900460ff1615610cf057610c9a33610b5f565b600660003373ffffffffffffffffffffffffffffffffffffffff1673ffffffffffffffffffffffffffffffffffffffff1681526020019081526020016000206000828254610ce8919061148d565b925050819055505b6000600160009054906101000a900473ffffffffffffffffffffffffffffffffffffffff1690508073ffffffffffffffffffffffffffffffffffffffff166323b872dd3330856040518463ffffffff167c0100000000000000000000000000000000000000000000000000000000028152600401610d70939291906112d0565b602060405180830381600087803b158015610d8a57600080fd5b505af1158015610d9e573d6000803e3d6000fd5b505050506040513d601f19601f82011682018060405250810190610dc29190611123565b506001600760003373ffffffffffffffffffffffffffffffffffffffff1673ffffffffffffffffffffffffffffffffffffffff16815260200190815260200160002060006101000a81548160ff02191690831515021790555042600860003373ffffffffffffffffffffffffffffffffffffffff1673ffffffffffffffffffffffffffffffffffffffff1681526020019081526020016000208190555081600560003373ffffffffffffffffffffffffffffffffffffffff1673ffffffffffffffffffffffffffffffffffffffff1681526020019081526020016000206000828254610eae919061148d565b925050819055506001600960003373ffffffffffffffffffffffffffffffffffffffff1673ffffffffffffffffffffffffffffffffffffffff16815260200190815260200160002060006101000a81548160ff0219169083151502179055503373ffffffffffffffffffffffffffffffffffffffff167fb831f69f1cebc12b23cd864ce5bfea2669d01956050a0147d71d418074559c2183604051610f53919061142d565b60405180910390a25050565b60008068056bc75e2d631000009050600062015180905060008183610f8491906114e3565b9050670de0b6b3a7640000600560008873ffffffffffffffffffffffffffffffffffffffff1673ffffffffffffffffffffffffffffffffffffffff16815260200190815260200160002054610fd991906114e3565b81610fe48888610adc565b610fee9190611514565b610ff89190611514565b935050505092915050565b60096020528060005260406000206000915054906101000a900460ff1681565b60086020528060005260406000206000915090505481565b600260009054906101000a900473ffffffffffffffffffffffffffffffffffffffff1681565b6000818361106f919061148d565b905092915050565b60008135905061108681611834565b92915050565b60008151905061109b8161184b565b92915050565b6000813590506110b081611862565b92915050565b6000602082840312156110cc576110cb6116dc565b5b60006110da84828501611077565b91505092915050565b600080604083850312156110fa576110f96116dc565b5b600061110885828601611077565b9250506020611119858286016110a1565b9150509250929050565b600060208284031215611139576111386116dc565b5b60006111478482850161108c565b91505092915050565b600060208284031215611166576111656116dc565b5b6000611174848285016110a1565b91505092915050565b611186816115a2565b82525050565b611195816115b4565b82525050565b60006111a682611471565b6111b0818561147c565b93506111c08185602086016115ea565b6111c9816116e1565b840191505092915050565b60006111e1602a8361147c565b91506111ec826116f2565b604082019050919050565b600061120460178361147c565b915061120f82611741565b602082019050919050565b600061122760188361147c565b91506112328261176a565b602082019050919050565b600061124a600e8361147c565b915061125582611793565b602082019050919050565b600061126d60308361147c565b9150611278826117bc565b604082019050919050565b600061129060108361147c565b915061129b8261180b565b602082019050919050565b6112af816115e0565b82525050565b60006020820190506112ca600083018461117d565b92915050565b60006060820190506112e5600083018661117d565b6112f2602083018561117d565b6112ff60408301846112a6565b949350505050565b600060408201905061131c600083018561117d565b61132960208301846112a6565b9392505050565b6000602082019050611345600083018461118c565b92915050565b60006020820190508181036000830152611365818461119b565b905092915050565b60006020820190508181036000830152611386816111d4565b9050919050565b600060208201905081810360008301526113a6816111f7565b9050919050565b600060208201905081810360008301526113c68161121a565b9050919050565b600060208201905081810360008301526113e68161123d565b9050919050565b6000602082019050818103600083015261140681611260565b9050919050565b6000602082019050818103600083015261142681611283565b9050919050565b600060208201905061144260008301846112a6565b92915050565b600060408201905061145d60008301856112a6565b61146a60208301846112a6565b9392505050565b600081519050919050565b600082825260208201905092915050565b6000611498826115e0565b91506114a3836115e0565b9250827fffffffffffffffffffffffffffffffffffffffffffffffffffffffffffffffff038211156114d8576114d761164f565b5b828201905092915050565b60006114ee826115e0565b91506114f9836115e0565b9250826115095761150861167e565b5b828204905092915050565b600061151f826115e0565b915061152a836115e0565b9250817fffffffffffffffffffffffffffffffffffffffffffffffffffffffffffffffff04831182151516156115635761156261164f565b5b828202905092915050565b6000611579826115e0565b9150611584836115e0565b9250828210156115975761159661164f565b5b828203905092915050565b60006115ad826115c0565b9050919050565b60008115159050919050565b600073ffffffffffffffffffffffffffffffffffffffff82169050919050565b6000819050919050565b60005b838110156116085780820151818401526020810190506115ed565b83811115611617576000848401525b50505050565b6000600282049050600182168061163557607f821691505b60208210811415611649576116486116ad565b5b50919050565b7f4e487b7100000000000000000000000000000000000000000000000000000000600052601160045260246000fd5b7f4e487b7100000000000000000000000000000000000000000000000000000000600052601260045260246000fd5b7f4e487b7100000000000000000000000000000000000000000000000000000000600052602260045260246000fd5b600080fd5b6000601f19601f8301169050919050565b7f4d75737420686176652061207374616b696e672062616c616e6365206772656160008201527f746572207468616e203000000000000000000000000000000000000000000000602082015250565b7f4e6f207265776172647320617420746869732074696d65000000000000000000600082015250565b7f506173736564207468652074696d6520746f207374616b650000000000000000600082015250565b7f4973206e6f74207374616b696e67000000000000000000000000000000000000600082015250565b7f4d757374207374616b65206d6f7265207468616e203020746f6b656e7320696e60008201527f206f7264657220746f20737465616b2e00000000000000000000000000000000602082015250565b7f4e6f742073746172746564207965742e00000000000000000000000000000000600082015250565b61183d816115a2565b811461184857600080fd5b50565b611854816115b4565b811461185f57600080fd5b50565b61186b816115e0565b811461187657600080fd5b5056fea2646970667358221220cc3be36793e2e17a5b500d63e82f39ea8701ced25b065b9d67d37fcd6c262e6464736f6c63430008070033a2646970667358221220eaf3bd795e3740181b81f18a728bc7d7dc7be6ddc63ecff4df232f78ad215c3964736f6c63430008070033",
  "immutableReferences": {},
  "source": "// SPDX-License-Identifier: MIT\npragma solidity >=0.4.22 <0.9.0;\n\nimport \"@openzeppelin/contracts/access/Ownable.sol\";\nimport \"@openzeppelin/contracts/utils/math/SafeMath.sol\";\nimport \"@openzeppelin/contracts/token/ERC20/IERC20.sol\";\nimport \"./Staker.sol\";\nimport \"./IToken.sol\";\n\ncontract StakerFactory is Ownable {\n  using SafeMath for uint;\n\n  //a farm is when you can add a token and get rewards\n  mapping (uint => address) public farms;\n  uint public totalFarms;\n  mapping(address => mapping(address => uint)) public faucetTimes;\n  uint public FAUCET_TIME = 1 days; //you can only grab x amount in a day\n  uint public FAUCET_AMOUNT = 1000 * 10**18; //this is how many tokens they get\n\n  event FacetTokensToUser(address indexed _token, address indexed _user, uint _amount);\n  event FarmAdded(address indexed _stakeAddress);\n\n  struct Farm {\n    address farm;\n    address stake;\n    address reward;\n    uint startTime;\n    uint endTime;\n  }\n\n  function createFarm(address _tokenA, address _tokenB, uint startTime, uint endTime) public onlyOwner {\n    //TOKEN B MUST BE OWNED BY THE CONTRACT! OR HAS PERMISSIONS TO APPROVE OTHER CONTRACTS TO MINT TOKENS\n    Staker staker = new Staker(_tokenA, _tokenB, startTime, endTime);\n    farms[totalFarms] = address(staker);\n    //add permissions for the reward token to mint tokens for the reward\n    IToken it = IToken(_tokenB);\n    it.addContractToMinterRole(address(staker));\n    totalFarms = totalFarms.add(1);\n    emit FarmAdded(address(staker));\n  }\n\n  function getFarms() view public returns(Farm[] memory) {\n    Farm[] memory ret = new Farm[](totalFarms);\n    for(uint i = 0; i < totalFarms; i++) {\n      Staker s = Staker(farms[i]);\n      ret[i] = Farm(farms[i], s.stakeToken(), s.rewardToken(), s.startTime(), s.endTime());\n    }\n    return ret;\n  }\n\n  function faucetTokens(address _tokenAddr, address _user) external {\n    //first check how much time past since last called\n    uint lastTime = faucetTimes[_tokenAddr][_user];\n    require (lastTime == 0 || (lastTime + FAUCET_TIME) < block.timestamp, \"You cannot get more tokens now\");\n    faucetTimes[_tokenAddr][_user] = block.timestamp;\n    IToken _token = IToken(_tokenAddr);\n    require(_token.owner() == address(this), \"Cannot faucet these tokens to user\");\n    // uint bal = _token.balanceOf(address(this));\n    // require(bal >= FAUCET_AMOUNT, \"Does not have enough tokens to provide you with.\");\n    //now send them the tokens\n    _token.mint(_user, FAUCET_AMOUNT);\n    //send event\n    emit FacetTokensToUser(_tokenAddr, _user, FAUCET_AMOUNT);\n  }\n}\n",
  "sourcePath": "C:\\Users\\surge\\Desktop\\dapp-projects\\staker-demo\\contracts\\StakerFactory.sol",
  "compiler": {
    "name": "solc",
    "version": "0.8.7+commit.e28d00a7.Emscripten.clang"
  },
  "schemaVersion": "3.4.3",
  "updatedAt": "2021-09-19T22:39:52.582Z",
  "networkType": "ethereum",
  "devdoc": {
    "kind": "dev",
    "methods": {
      "owner()": {
        "details": "Returns the address of the current owner."
      },
      "renounceOwnership()": {
        "details": "Leaves the contract without owner. It will not be possible to call `onlyOwner` functions anymore. Can only be called by the current owner. NOTE: Renouncing ownership will leave the contract without an owner, thereby removing any functionality that is only available to the owner."
      },
      "transferOwnership(address)": {
        "details": "Transfers ownership of the contract to a new account (`newOwner`). Can only be called by the current owner."
      }
    },
    "version": 1
  },
  "userdoc": {
    "kind": "user",
    "methods": {},
    "version": 1
  }
}