{
  "contractName": "BloodToken",
  "abi": [
    {
      "inputs": [],
      "stateMutability": "nonpayable",
      "type": "constructor"
    },
    {
      "anonymous": false,
      "inputs": [
        {
          "indexed": true,
          "internalType": "address",
          "name": "owner",
          "type": "address"
        },
        {
          "indexed": true,
          "internalType": "address",
          "name": "spender",
          "type": "address"
        },
        {
          "indexed": false,
          "internalType": "uint256",
          "name": "value",
          "type": "uint256"
        }
      ],
      "name": "Approval",
      "type": "event"
    },
    {
      "anonymous": false,
      "inputs": [
        {
          "indexed": true,
          "internalType": "bytes32",
          "name": "role",
          "type": "bytes32"
        },
        {
          "indexed": true,
          "internalType": "bytes32",
          "name": "previousAdminRole",
          "type": "bytes32"
        },
        {
          "indexed": true,
          "internalType": "bytes32",
          "name": "newAdminRole",
          "type": "bytes32"
        }
      ],
      "name": "RoleAdminChanged",
      "type": "event"
    },
    {
      "anonymous": false,
      "inputs": [
        {
          "indexed": true,
          "internalType": "bytes32",
          "name": "role",
          "type": "bytes32"
        },
        {
          "indexed": true,
          "internalType": "address",
          "name": "account",
          "type": "address"
        },
        {
          "indexed": true,
          "internalType": "address",
          "name": "sender",
          "type": "address"
        }
      ],
      "name": "RoleGranted",
      "type": "event"
    },
    {
      "anonymous": false,
      "inputs": [
        {
          "indexed": true,
          "internalType": "bytes32",
          "name": "role",
          "type": "bytes32"
        },
        {
          "indexed": true,
          "internalType": "address",
          "name": "account",
          "type": "address"
        },
        {
          "indexed": true,
          "internalType": "address",
          "name": "sender",
          "type": "address"
        }
      ],
      "name": "RoleRevoked",
      "type": "event"
    },
    {
      "anonymous": false,
      "inputs": [
        {
          "indexed": true,
          "internalType": "address",
          "name": "from",
          "type": "address"
        },
        {
          "indexed": true,
          "internalType": "address",
          "name": "to",
          "type": "address"
        },
        {
          "indexed": false,
          "internalType": "uint256",
          "name": "value",
          "type": "uint256"
        }
      ],
      "name": "Transfer",
      "type": "event"
    },
    {
      "inputs": [],
      "name": "DEFAULT_ADMIN_ROLE",
      "outputs": [
        {
          "internalType": "bytes32",
          "name": "",
          "type": "bytes32"
        }
      ],
      "stateMutability": "view",
      "type": "function"
    },
    {
      "inputs": [],
      "name": "MINTER_ROLE",
      "outputs": [
        {
          "internalType": "bytes32",
          "name": "",
          "type": "bytes32"
        }
      ],
      "stateMutability": "view",
      "type": "function"
    },
    {
      "inputs": [
        {
          "internalType": "address",
          "name": "owner",
          "type": "address"
        },
        {
          "internalType": "address",
          "name": "spender",
          "type": "address"
        }
      ],
      "name": "allowance",
      "outputs": [
        {
          "internalType": "uint256",
          "name": "",
          "type": "uint256"
        }
      ],
      "stateMutability": "view",
      "type": "function"
    },
    {
      "inputs": [
        {
          "internalType": "address",
          "name": "spender",
          "type": "address"
        },
        {
          "internalType": "uint256",
          "name": "amount",
          "type": "uint256"
        }
      ],
      "name": "approve",
      "outputs": [
        {
          "internalType": "bool",
          "name": "",
          "type": "bool"
        }
      ],
      "stateMutability": "nonpayable",
      "type": "function"
    },
    {
      "inputs": [
        {
          "internalType": "address",
          "name": "account",
          "type": "address"
        }
      ],
      "name": "balanceOf",
      "outputs": [
        {
          "internalType": "uint256",
          "name": "",
          "type": "uint256"
        }
      ],
      "stateMutability": "view",
      "type": "function"
    },
    {
      "inputs": [],
      "name": "decimals",
      "outputs": [
        {
          "internalType": "uint8",
          "name": "",
          "type": "uint8"
        }
      ],
      "stateMutability": "view",
      "type": "function"
    },
    {
      "inputs": [
        {
          "internalType": "address",
          "name": "spender",
          "type": "address"
        },
        {
          "internalType": "uint256",
          "name": "subtractedValue",
          "type": "uint256"
        }
      ],
      "name": "decreaseAllowance",
      "outputs": [
        {
          "internalType": "bool",
          "name": "",
          "type": "bool"
        }
      ],
      "stateMutability": "nonpayable",
      "type": "function"
    },
    {
      "inputs": [
        {
          "internalType": "bytes32",
          "name": "role",
          "type": "bytes32"
        }
      ],
      "name": "getRoleAdmin",
      "outputs": [
        {
          "internalType": "bytes32",
          "name": "",
          "type": "bytes32"
        }
      ],
      "stateMutability": "view",
      "type": "function"
    },
    {
      "inputs": [
        {
          "internalType": "bytes32",
          "name": "role",
          "type": "bytes32"
        },
        {
          "internalType": "address",
          "name": "account",
          "type": "address"
        }
      ],
      "name": "grantRole",
      "outputs": [],
      "stateMutability": "nonpayable",
      "type": "function"
    },
    {
      "inputs": [
        {
          "internalType": "bytes32",
          "name": "role",
          "type": "bytes32"
        },
        {
          "internalType": "address",
          "name": "account",
          "type": "address"
        }
      ],
      "name": "hasRole",
      "outputs": [
        {
          "internalType": "bool",
          "name": "",
          "type": "bool"
        }
      ],
      "stateMutability": "view",
      "type": "function"
    },
    {
      "inputs": [
        {
          "internalType": "address",
          "name": "spender",
          "type": "address"
        },
        {
          "internalType": "uint256",
          "name": "addedValue",
          "type": "uint256"
        }
      ],
      "name": "increaseAllowance",
      "outputs": [
        {
          "internalType": "bool",
          "name": "",
          "type": "bool"
        }
      ],
      "stateMutability": "nonpayable",
      "type": "function"
    },
    {
      "inputs": [],
      "name": "name",
      "outputs": [
        {
          "internalType": "string",
          "name": "",
          "type": "string"
        }
      ],
      "stateMutability": "view",
      "type": "function"
    },
    {
      "inputs": [
        {
          "internalType": "bytes32",
          "name": "role",
          "type": "bytes32"
        },
        {
          "internalType": "address",
          "name": "account",
          "type": "address"
        }
      ],
      "name": "renounceRole",
      "outputs": [],
      "stateMutability": "nonpayable",
      "type": "function"
    },
    {
      "inputs": [
        {
          "internalType": "bytes32",
          "name": "role",
          "type": "bytes32"
        },
        {
          "internalType": "address",
          "name": "account",
          "type": "address"
        }
      ],
      "name": "revokeRole",
      "outputs": [],
      "stateMutability": "nonpayable",
      "type": "function"
    },
    {
      "inputs": [
        {
          "internalType": "bytes4",
          "name": "interfaceId",
          "type": "bytes4"
        }
      ],
      "name": "supportsInterface",
      "outputs": [
        {
          "internalType": "bool",
          "name": "",
          "type": "bool"
        }
      ],
      "stateMutability": "view",
      "type": "function"
    },
    {
      "inputs": [],
      "name": "symbol",
      "outputs": [
        {
          "internalType": "string",
          "name": "",
          "type": "string"
        }
      ],
      "stateMutability": "view",
      "type": "function"
    },
    {
      "inputs": [],
      "name": "totalSupply",
      "outputs": [
        {
          "internalType": "uint256",
          "name": "",
          "type": "uint256"
        }
      ],
      "stateMutability": "view",
      "type": "function"
    },
    {
      "inputs": [
        {
          "internalType": "address",
          "name": "recipient",
          "type": "address"
        },
        {
          "internalType": "uint256",
          "name": "amount",
          "type": "uint256"
        }
      ],
      "name": "transfer",
      "outputs": [
        {
          "internalType": "bool",
          "name": "",
          "type": "bool"
        }
      ],
      "stateMutability": "nonpayable",
      "type": "function"
    },
    {
      "inputs": [
        {
          "internalType": "address",
          "name": "sender",
          "type": "address"
        },
        {
          "internalType": "address",
          "name": "recipient",
          "type": "address"
        },
        {
          "internalType": "uint256",
          "name": "amount",
          "type": "uint256"
        }
      ],
      "name": "transferFrom",
      "outputs": [
        {
          "internalType": "bool",
          "name": "",
          "type": "bool"
        }
      ],
      "stateMutability": "nonpayable",
      "type": "function"
    },
    {
      "inputs": [
        {
          "internalType": "address",
          "name": "to",
          "type": "address"
        },
        {
          "internalType": "uint256",
          "name": "amount",
          "type": "uint256"
        }
      ],
      "name": "mint",
      "outputs": [],
      "stateMutability": "nonpayable",
      "type": "function"
    },
    {
      "inputs": [
        {
          "internalType": "address",
          "name": "_addr",
          "type": "address"
        }
      ],
      "name": "addToMinterRole",
      "outputs": [],
      "stateMutability": "nonpayable",
      "type": "function"
    }
  ],
  "bytecode": "0x60806040523480156200001157600080fd5b506040518060400160405280600581526020017f426c6f6f640000000000000000000000000000000000000000000000000000008152506040518060400160405280600581526020017f424c4f4f4400000000000000000000000000000000000000000000000000000081525081600390805190602001906200009692919062000497565b508060049080519060200190620000af92919062000497565b505050620000d160006001023362000163640100000000026401000000009004565b6200010c7f9f2df0fed2c77648de5860a4cc508cd0818c85b8b8a1ab4ceeef8d981c8956a63362000163640100000000026401000000009004565b6200015d336200012a62000182640100000000026401000000009004565b600a62000138919062000687565b620f4240620001489190620007c4565b6200018b640100000000026401000000009004565b62000906565b6200017e828262000316640100000000026401000000009004565b5050565b60006012905090565b600073ffffffffffffffffffffffffffffffffffffffff168273ffffffffffffffffffffffffffffffffffffffff161415620001fe576040517f08c379a0000000000000000000000000000000000000000000000000000000008152600401620001f5906200057f565b60405180910390fd5b6200021b600083836200041a640100000000026401000000009004565b80600260008282546200022f9190620005cf565b92505081905550806000808473ffffffffffffffffffffffffffffffffffffffff1673ffffffffffffffffffffffffffffffffffffffff1681526020019081526020016000206000828254620002869190620005cf565b925050819055508173ffffffffffffffffffffffffffffffffffffffff16600073ffffffffffffffffffffffffffffffffffffffff167fddf252ad1be2c89b69c2b068fc378daa952ba7f163c4a11628f55a4df523b3ef83604051620002ed9190620005a1565b60405180910390a362000312600083836200041f640100000000026401000000009004565b5050565b62000331828262000424640100000000026401000000009004565b620004165760016005600084815260200190815260200160002060000160008373ffffffffffffffffffffffffffffffffffffffff1673ffffffffffffffffffffffffffffffffffffffff16815260200190815260200160002060006101000a81548160ff021916908315150217905550620003bb6200048f640100000000026401000000009004565b73ffffffffffffffffffffffffffffffffffffffff168173ffffffffffffffffffffffffffffffffffffffff16837f2f8788117e7eff1d82e926ec794901d17c78024a50270940304540a733656f0d60405160405180910390a45b5050565b505050565b505050565b60006005600084815260200190815260200160002060000160008373ffffffffffffffffffffffffffffffffffffffff1673ffffffffffffffffffffffffffffffffffffffff16815260200190815260200160002060009054906101000a900460ff16905092915050565b600033905090565b828054620004a5906200083c565b90600052602060002090601f016020900481019282620004c9576000855562000515565b82601f10620004e457805160ff191683800117855562000515565b8280016001018555821562000515579182015b8281111562000514578251825591602001919060010190620004f7565b5b50905062000524919062000528565b5090565b5b808211156200054357600081600090555060010162000529565b5090565b600062000556601f83620005be565b91506200056382620008dd565b602082019050919050565b620005798162000825565b82525050565b600060208201905081810360008301526200059a8162000547565b9050919050565b6000602082019050620005b860008301846200056e565b92915050565b600082825260208201905092915050565b6000620005dc8262000825565b9150620005e98362000825565b9250827fffffffffffffffffffffffffffffffffffffffffffffffffffffffffffffffff0382111562000621576200062062000872565b5b828201905092915050565b6000808291508390505b60018511156200067e5780860481111562000656576200065562000872565b5b6001851615620006665780820291505b80810290506200067685620008d0565b945062000636565b94509492505050565b6000620006948262000825565b9150620006a1836200082f565b9250620006d07fffffffffffffffffffffffffffffffffffffffffffffffffffffffffffffffff8484620006d8565b905092915050565b600082620006ea5760019050620007bd565b81620006fa5760009050620007bd565b81600181146200071357600281146200071e5762000754565b6001915050620007bd565b60ff84111562000733576200073262000872565b5b8360020a9150848211156200074d576200074c62000872565b5b50620007bd565b5060208310610133831016604e8410600b84101617156200078e5782820a90508381111562000788576200078762000872565b5b620007bd565b6200079d84848460016200062c565b92509050818404811115620007b757620007b662000872565b5b81810290505b9392505050565b6000620007d18262000825565b9150620007de8362000825565b9250817fffffffffffffffffffffffffffffffffffffffffffffffffffffffffffffffff04831182151516156200081a576200081962000872565b5b828202905092915050565b6000819050919050565b600060ff82169050919050565b600060028204905060018216806200085557607f821691505b602082108114156200086c576200086b620008a1565b5b50919050565b7f4e487b7100000000000000000000000000000000000000000000000000000000600052601160045260246000fd5b7f4e487b7100000000000000000000000000000000000000000000000000000000600052602260045260246000fd5b6000600282049050919050565b7f45524332303a206d696e7420746f20746865207a65726f206164647265737300600082015250565b61238080620009166000396000f3fe608060405234801561001057600080fd5b5060043610610154576000357c01000000000000000000000000000000000000000000000000000000009004806339509351116100d5578063a217fddf11610099578063a217fddf14610391578063a457c2d7146103af578063a9059cbb146103df578063d53913931461040f578063d547741f1461042d578063dd62ed3e1461044957610154565b806339509351146102c757806340c10f19146102f757806370a082311461031357806391d148541461034357806395d89b411461037357610154565b8063248a9ca31161011c578063248a9ca314610225578063284facff146102555780632f2ff15d14610271578063313ce5671461028d57806336568abe146102ab57610154565b806301ffc9a71461015957806306fdde0314610189578063095ea7b3146101a757806318160ddd146101d757806323b872dd146101f5575b600080fd5b610173600480360381019061016e9190611890565b610479565b6040516101809190611b41565b60405180910390f35b6101916104f3565b60405161019e9190611b77565b60405180910390f35b6101c160048036038101906101bc91906117e3565b610585565b6040516101ce9190611b41565b60405180910390f35b6101df6105a3565b6040516101ec9190611cd9565b60405180910390f35b61020f600480360381019061020a9190611790565b6105ad565b60405161021c9190611b41565b60405180910390f35b61023f600480360381019061023a9190611823565b6106a5565b60405161024c9190611b5c565b60405180910390f35b61026f600480360381019061026a9190611723565b6106c5565b005b61028b60048036038101906102869190611850565b610709565b005b610295610732565b6040516102a29190611cf4565b60405180910390f35b6102c560048036038101906102c09190611850565b61073b565b005b6102e160048036038101906102dc91906117e3565b6107be565b6040516102ee9190611b41565b60405180910390f35b610311600480360381019061030c91906117e3565b61086a565b005b61032d60048036038101906103289190611723565b6108ab565b60405161033a9190611cd9565b60405180910390f35b61035d60048036038101906103589190611850565b6108f3565b60405161036a9190611b41565b60405180910390f35b61037b61095e565b6040516103889190611b77565b60405180910390f35b6103996109f0565b6040516103a69190611b5c565b60405180910390f35b6103c960048036038101906103c491906117e3565b6109f8565b6040516103d69190611b41565b60405180910390f35b6103f960048036038101906103f491906117e3565b610ae3565b6040516104069190611b41565b60405180910390f35b610417610b01565b6040516104249190611b5c565b60405180910390f35b61044760048036038101906104429190611850565b610b25565b005b610463600480360381019061045e9190611750565b610b4e565b6040516104709190611cd9565b60405180910390f35b60007f7965db0b000000000000000000000000000000000000000000000000000000007bffffffffffffffffffffffffffffffffffffffffffffffffffffffff1916827bffffffffffffffffffffffffffffffffffffffffffffffffffffffff191614806104ec57506104eb82610bd5565b5b9050919050565b60606003805461050290611ece565b80601f016020809104026020016040519081016040528092919081815260200182805461052e90611ece565b801561057b5780601f106105505761010080835404028352916020019161057b565b820191906000526020600020905b81548152906001019060200180831161055e57829003601f168201915b5050505050905090565b6000610599610592610c3f565b8484610c47565b6001905092915050565b6000600254905090565b60006105ba848484610e12565b6000600160008673ffffffffffffffffffffffffffffffffffffffff1673ffffffffffffffffffffffffffffffffffffffff1681526020019081526020016000206000610605610c3f565b73ffffffffffffffffffffffffffffffffffffffff1673ffffffffffffffffffffffffffffffffffffffff16815260200190815260200160002054905082811015610685576040517f08c379a000000000000000000000000000000000000000000000000000000000815260040161067c90611c19565b60405180910390fd5b61069985610691610c3f565b858403610c47565b60019150509392505050565b600060056000838152602001908152602001600020600101549050919050565b60006001026106db816106d6610c3f565b611093565b6107057f9f2df0fed2c77648de5860a4cc508cd0818c85b8b8a1ab4ceeef8d981c8956a683611131565b5050565b610712826106a5565b6107238161071e610c3f565b611093565b61072d838361113f565b505050565b60006012905090565b610743610c3f565b73ffffffffffffffffffffffffffffffffffffffff168173ffffffffffffffffffffffffffffffffffffffff16146107b0576040517f08c379a00000000000000000000000000000000000000000000000000000000081526004016107a790611c99565b60405180910390fd5b6107ba8282611220565b5050565b60006108606107cb610c3f565b8484600160006107d9610c3f565b73ffffffffffffffffffffffffffffffffffffffff1673ffffffffffffffffffffffffffffffffffffffff16815260200190815260200160002060008873ffffffffffffffffffffffffffffffffffffffff1673ffffffffffffffffffffffffffffffffffffffff1681526020019081526020016000205461085b9190611d36565b610c47565b6001905092915050565b7f9f2df0fed2c77648de5860a4cc508cd0818c85b8b8a1ab4ceeef8d981c8956a661089c81610897610c3f565b611093565b6108a68383611302565b505050565b60008060008373ffffffffffffffffffffffffffffffffffffffff1673ffffffffffffffffffffffffffffffffffffffff168152602001908152602001600020549050919050565b60006005600084815260200190815260200160002060000160008373ffffffffffffffffffffffffffffffffffffffff1673ffffffffffffffffffffffffffffffffffffffff16815260200190815260200160002060009054906101000a900460ff16905092915050565b60606004805461096d90611ece565b80601f016020809104026020016040519081016040528092919081815260200182805461099990611ece565b80156109e65780601f106109bb576101008083540402835291602001916109e6565b820191906000526020600020905b8154815290600101906020018083116109c957829003601f168201915b5050505050905090565b600060010281565b60008060016000610a07610c3f565b73ffffffffffffffffffffffffffffffffffffffff1673ffffffffffffffffffffffffffffffffffffffff16815260200190815260200160002060008573ffffffffffffffffffffffffffffffffffffffff1673ffffffffffffffffffffffffffffffffffffffff16815260200190815260200160002054905082811015610ac4576040517f08c379a0000000000000000000000000000000000000000000000000000000008152600401610abb90611c79565b60405180910390fd5b610ad8610acf610c3f565b85858403610c47565b600191505092915050565b6000610af7610af0610c3f565b8484610e12565b6001905092915050565b7f9f2df0fed2c77648de5860a4cc508cd0818c85b8b8a1ab4ceeef8d981c8956a681565b610b2e826106a5565b610b3f81610b3a610c3f565b611093565b610b498383611220565b505050565b6000600160008473ffffffffffffffffffffffffffffffffffffffff1673ffffffffffffffffffffffffffffffffffffffff16815260200190815260200160002060008373ffffffffffffffffffffffffffffffffffffffff1673ffffffffffffffffffffffffffffffffffffffff16815260200190815260200160002054905092915050565b60007f01ffc9a7000000000000000000000000000000000000000000000000000000007bffffffffffffffffffffffffffffffffffffffffffffffffffffffff1916827bffffffffffffffffffffffffffffffffffffffffffffffffffffffff1916149050919050565b600033905090565b600073ffffffffffffffffffffffffffffffffffffffff168373ffffffffffffffffffffffffffffffffffffffff161415610cb7576040517f08c379a0000000000000000000000000000000000000000000000000000000008152600401610cae90611c59565b60405180910390fd5b600073ffffffffffffffffffffffffffffffffffffffff168273ffffffffffffffffffffffffffffffffffffffff161415610d27576040517f08c379a0000000000000000000000000000000000000000000000000000000008152600401610d1e90611bd9565b60405180910390fd5b80600160008573ffffffffffffffffffffffffffffffffffffffff1673ffffffffffffffffffffffffffffffffffffffff16815260200190815260200160002060008473ffffffffffffffffffffffffffffffffffffffff1673ffffffffffffffffffffffffffffffffffffffff168152602001908152602001600020819055508173ffffffffffffffffffffffffffffffffffffffff168373ffffffffffffffffffffffffffffffffffffffff167f8c5be1e5ebec7d5bd14f71427d1e84f3dd0314c0f7b2291e5b200ac8c7c3b92583604051610e059190611cd9565b60405180910390a3505050565b600073ffffffffffffffffffffffffffffffffffffffff168373ffffffffffffffffffffffffffffffffffffffff161415610e82576040517f08c379a0000000000000000000000000000000000000000000000000000000008152600401610e7990611c39565b60405180910390fd5b600073ffffffffffffffffffffffffffffffffffffffff168273ffffffffffffffffffffffffffffffffffffffff161415610ef2576040517f08c379a0000000000000000000000000000000000000000000000000000000008152600401610ee990611bb9565b60405180910390fd5b610efd838383611462565b60008060008573ffffffffffffffffffffffffffffffffffffffff1673ffffffffffffffffffffffffffffffffffffffff16815260200190815260200160002054905081811015610f83576040517f08c379a0000000000000000000000000000000000000000000000000000000008152600401610f7a90611bf9565b60405180910390fd5b8181036000808673ffffffffffffffffffffffffffffffffffffffff1673ffffffffffffffffffffffffffffffffffffffff16815260200190815260200160002081905550816000808573ffffffffffffffffffffffffffffffffffffffff1673ffffffffffffffffffffffffffffffffffffffff16815260200190815260200160002060008282546110169190611d36565b925050819055508273ffffffffffffffffffffffffffffffffffffffff168473ffffffffffffffffffffffffffffffffffffffff167fddf252ad1be2c89b69c2b068fc378daa952ba7f163c4a11628f55a4df523b3ef8460405161107a9190611cd9565b60405180910390a361108d848484611467565b50505050565b61109d82826108f3565b61112d576110c28173ffffffffffffffffffffffffffffffffffffffff16601461146c565b6110d18360019004602061146c565b6040516020016110e2929190611b07565b6040516020818303038152906040526040517f08c379a00000000000000000000000000000000000000000000000000000000081526004016111249190611b77565b60405180910390fd5b5050565b61113b828261113f565b5050565b61114982826108f3565b61121c5760016005600084815260200190815260200160002060000160008373ffffffffffffffffffffffffffffffffffffffff1673ffffffffffffffffffffffffffffffffffffffff16815260200190815260200160002060006101000a81548160ff0219169083151502179055506111c1610c3f565b73ffffffffffffffffffffffffffffffffffffffff168173ffffffffffffffffffffffffffffffffffffffff16837f2f8788117e7eff1d82e926ec794901d17c78024a50270940304540a733656f0d60405160405180910390a45b5050565b61122a82826108f3565b156112fe5760006005600084815260200190815260200160002060000160008373ffffffffffffffffffffffffffffffffffffffff1673ffffffffffffffffffffffffffffffffffffffff16815260200190815260200160002060006101000a81548160ff0219169083151502179055506112a3610c3f565b73ffffffffffffffffffffffffffffffffffffffff168173ffffffffffffffffffffffffffffffffffffffff16837ff6391f5c32d9c69d2a47ea670b442974b53935d1edc7fd64eb21e047a839171b60405160405180910390a45b5050565b600073ffffffffffffffffffffffffffffffffffffffff168273ffffffffffffffffffffffffffffffffffffffff161415611372576040517f08c379a000000000000000000000000000000000000000000000000000000000815260040161136990611cb9565b60405180910390fd5b61137e60008383611462565b80600260008282546113909190611d36565b92505081905550806000808473ffffffffffffffffffffffffffffffffffffffff1673ffffffffffffffffffffffffffffffffffffffff16815260200190815260200160002060008282546113e59190611d36565b925050819055508173ffffffffffffffffffffffffffffffffffffffff16600073ffffffffffffffffffffffffffffffffffffffff167fddf252ad1be2c89b69c2b068fc378daa952ba7f163c4a11628f55a4df523b3ef8360405161144a9190611cd9565b60405180910390a361145e60008383611467565b5050565b505050565b505050565b60606000600283600261147f9190611d8c565b6114899190611d36565b67ffffffffffffffff8111156114a2576114a1611f8d565b5b6040519080825280601f01601f1916602001820160405280156114d45781602001600182028036833780820191505090505b5090507f30000000000000000000000000000000000000000000000000000000000000008160008151811061150c5761150b611f5e565b5b60200101907effffffffffffffffffffffffffffffffffffffffffffffffffffffffffffff1916908160001a9053507f7800000000000000000000000000000000000000000000000000000000000000816001815181106115705761156f611f5e565b5b60200101907effffffffffffffffffffffffffffffffffffffffffffffffffffffffffffff1916908160001a905350600060018460026115b09190611d8c565b6115ba9190611d36565b90505b6001811115611681577f3031323334353637383961626364656600000000000000000000000000000000600f8616601081106115fc576115fb611f5e565b5b1a7f01000000000000000000000000000000000000000000000000000000000000000282828151811061163257611631611f5e565b5b60200101907effffffffffffffffffffffffffffffffffffffffffffffffffffffffffffff1916908160001a905350600485908060020a820491505094508061167a90611ea4565b90506115bd565b50600084146116c5576040517f08c379a00000000000000000000000000000000000000000000000000000000081526004016116bc90611b99565b60405180910390fd5b8091505092915050565b6000813590506116de816122ee565b92915050565b6000813590506116f381612305565b92915050565b6000813590506117088161231c565b92915050565b60008135905061171d81612333565b92915050565b60006020828403121561173957611738611fbc565b5b6000611747848285016116cf565b91505092915050565b6000806040838503121561176757611766611fbc565b5b6000611775858286016116cf565b9250506020611786858286016116cf565b9150509250929050565b6000806000606084860312156117a9576117a8611fbc565b5b60006117b7868287016116cf565b93505060206117c8868287016116cf565b92505060406117d98682870161170e565b9150509250925092565b600080604083850312156117fa576117f9611fbc565b5b6000611808858286016116cf565b92505060206118198582860161170e565b9150509250929050565b60006020828403121561183957611838611fbc565b5b6000611847848285016116e4565b91505092915050565b6000806040838503121561186757611866611fbc565b5b6000611875858286016116e4565b9250506020611886858286016116cf565b9150509250929050565b6000602082840312156118a6576118a5611fbc565b5b60006118b4848285016116f9565b91505092915050565b6118c681611df8565b82525050565b6118d581611e04565b82525050565b60006118e682611d0f565b6118f08185611d1a565b9350611900818560208601611e71565b61190981611fc1565b840191505092915050565b600061191f82611d0f565b6119298185611d2b565b9350611939818560208601611e71565b80840191505092915050565b6000611952602083611d1a565b915061195d82611fd2565b602082019050919050565b6000611975602383611d1a565b915061198082611ffb565b604082019050919050565b6000611998602283611d1a565b91506119a38261204a565b604082019050919050565b60006119bb602683611d1a565b91506119c682612099565b604082019050919050565b60006119de602883611d1a565b91506119e9826120e8565b604082019050919050565b6000611a01602583611d1a565b9150611a0c82612137565b604082019050919050565b6000611a24602483611d1a565b9150611a2f82612186565b604082019050919050565b6000611a47601783611d2b565b9150611a52826121d5565b601782019050919050565b6000611a6a602583611d1a565b9150611a75826121fe565b604082019050919050565b6000611a8d601183611d2b565b9150611a988261224d565b601182019050919050565b6000611ab0602f83611d1a565b9150611abb82612276565b604082019050919050565b6000611ad3601f83611d1a565b9150611ade826122c5565b602082019050919050565b611af281611e5a565b82525050565b611b0181611e64565b82525050565b6000611b1282611a3a565b9150611b1e8285611914565b9150611b2982611a80565b9150611b358284611914565b91508190509392505050565b6000602082019050611b5660008301846118bd565b92915050565b6000602082019050611b7160008301846118cc565b92915050565b60006020820190508181036000830152611b9181846118db565b905092915050565b60006020820190508181036000830152611bb281611945565b9050919050565b60006020820190508181036000830152611bd281611968565b9050919050565b60006020820190508181036000830152611bf28161198b565b9050919050565b60006020820190508181036000830152611c12816119ae565b9050919050565b60006020820190508181036000830152611c32816119d1565b9050919050565b60006020820190508181036000830152611c52816119f4565b9050919050565b60006020820190508181036000830152611c7281611a17565b9050919050565b60006020820190508181036000830152611c9281611a5d565b9050919050565b60006020820190508181036000830152611cb281611aa3565b9050919050565b60006020820190508181036000830152611cd281611ac6565b9050919050565b6000602082019050611cee6000830184611ae9565b92915050565b6000602082019050611d096000830184611af8565b92915050565b600081519050919050565b600082825260208201905092915050565b600081905092915050565b6000611d4182611e5a565b9150611d4c83611e5a565b9250827fffffffffffffffffffffffffffffffffffffffffffffffffffffffffffffffff03821115611d8157611d80611f00565b5b828201905092915050565b6000611d9782611e5a565b9150611da283611e5a565b9250817fffffffffffffffffffffffffffffffffffffffffffffffffffffffffffffffff0483118215151615611ddb57611dda611f00565b5b828202905092915050565b6000611df182611e3a565b9050919050565b60008115159050919050565b6000819050919050565b60007fffffffff0000000000000000000000000000000000000000000000000000000082169050919050565b600073ffffffffffffffffffffffffffffffffffffffff82169050919050565b6000819050919050565b600060ff82169050919050565b60005b83811015611e8f578082015181840152602081019050611e74565b83811115611e9e576000848401525b50505050565b6000611eaf82611e5a565b91506000821415611ec357611ec2611f00565b5b600182039050919050565b60006002820490506001821680611ee657607f821691505b60208210811415611efa57611ef9611f2f565b5b50919050565b7f4e487b7100000000000000000000000000000000000000000000000000000000600052601160045260246000fd5b7f4e487b7100000000000000000000000000000000000000000000000000000000600052602260045260246000fd5b7f4e487b7100000000000000000000000000000000000000000000000000000000600052603260045260246000fd5b7f4e487b7100000000000000000000000000000000000000000000000000000000600052604160045260246000fd5b600080fd5b6000601f19601f8301169050919050565b7f537472696e67733a20686578206c656e67746820696e73756666696369656e74600082015250565b7f45524332303a207472616e7366657220746f20746865207a65726f206164647260008201527f6573730000000000000000000000000000000000000000000000000000000000602082015250565b7f45524332303a20617070726f766520746f20746865207a65726f20616464726560008201527f7373000000000000000000000000000000000000000000000000000000000000602082015250565b7f45524332303a207472616e7366657220616d6f756e742065786365656473206260008201527f616c616e63650000000000000000000000000000000000000000000000000000602082015250565b7f45524332303a207472616e7366657220616d6f756e742065786365656473206160008201527f6c6c6f77616e6365000000000000000000000000000000000000000000000000602082015250565b7f45524332303a207472616e736665722066726f6d20746865207a65726f20616460008201527f6472657373000000000000000000000000000000000000000000000000000000602082015250565b7f45524332303a20617070726f76652066726f6d20746865207a65726f2061646460008201527f7265737300000000000000000000000000000000000000000000000000000000602082015250565b7f416363657373436f6e74726f6c3a206163636f756e7420000000000000000000600082015250565b7f45524332303a2064656372656173656420616c6c6f77616e63652062656c6f7760008201527f207a65726f000000000000000000000000000000000000000000000000000000602082015250565b7f206973206d697373696e6720726f6c6520000000000000000000000000000000600082015250565b7f416363657373436f6e74726f6c3a2063616e206f6e6c792072656e6f756e636560008201527f20726f6c657320666f722073656c660000000000000000000000000000000000602082015250565b7f45524332303a206d696e7420746f20746865207a65726f206164647265737300600082015250565b6122f781611de6565b811461230257600080fd5b50565b61230e81611e04565b811461231957600080fd5b50565b61232581611e0e565b811461233057600080fd5b50565b61233c81611e5a565b811461234757600080fd5b5056fea2646970667358221220f449d8435c7f9397ff103eb07f7d5f86f0679816b074a2aaa8e571e79efe3c7c64736f6c63430008070033",
  "immutableReferences": {},
  "source": "// SPDX-License-Identifier: MIT\r\npragma solidity ^0.8.2;\r\n\r\nimport \"@openzeppelin/contracts/token/ERC20/ERC20.sol\";\r\nimport \"@openzeppelin/contracts/access/AccessControl.sol\";\r\n\r\ncontract BloodToken is ERC20, AccessControl {\r\n    bytes32 public constant MINTER_ROLE = keccak256(\"MINTER_ROLE\");\r\n\r\n    constructor() ERC20(\"Blood\", \"BLOOD\") {\r\n        _setupRole(DEFAULT_ADMIN_ROLE, msg.sender);\r\n        _setupRole(MINTER_ROLE, msg.sender);\r\n        _mint(msg.sender, 1000000 * 10 ** decimals());\r\n    }\r\n\r\n    function mint(address to, uint256 amount) public onlyRole(MINTER_ROLE) {\r\n        _mint(to, amount);\r\n    }\r\n\r\n    function addToMinterRole(address _addr) external onlyRole(DEFAULT_ADMIN_ROLE) {\r\n        _setupRole(MINTER_ROLE, _addr);\r\n    }\r\n}",
  "sourcePath": "C:\\Users\\surge\\Desktop\\dapp-projects\\staker-demo\\contracts\\BloodToken.sol",
  "compiler": {
    "name": "solc",
    "version": "0.8.7+commit.e28d00a7.Emscripten.clang"
  },
  "schemaVersion": "3.4.3",
  "updatedAt": "2021-09-13T04:58:57.846Z",
  "devdoc": {
    "kind": "dev",
    "methods": {
      "allowance(address,address)": {
        "details": "See {IERC20-allowance}."
      },
      "approve(address,uint256)": {
        "details": "See {IERC20-approve}. Requirements: - `spender` cannot be the zero address."
      },
      "balanceOf(address)": {
        "details": "See {IERC20-balanceOf}."
      },
      "decimals()": {
        "details": "Returns the number of decimals used to get its user representation. For example, if `decimals` equals `2`, a balance of `505` tokens should be displayed to a user as `5.05` (`505 / 10 ** 2`). Tokens usually opt for a value of 18, imitating the relationship between Ether and Wei. This is the value {ERC20} uses, unless this function is overridden; NOTE: This information is only used for _display_ purposes: it in no way affects any of the arithmetic of the contract, including {IERC20-balanceOf} and {IERC20-transfer}."
      },
      "decreaseAllowance(address,uint256)": {
        "details": "Atomically decreases the allowance granted to `spender` by the caller. This is an alternative to {approve} that can be used as a mitigation for problems described in {IERC20-approve}. Emits an {Approval} event indicating the updated allowance. Requirements: - `spender` cannot be the zero address. - `spender` must have allowance for the caller of at least `subtractedValue`."
      },
      "getRoleAdmin(bytes32)": {
        "details": "Returns the admin role that controls `role`. See {grantRole} and {revokeRole}. To change a role's admin, use {_setRoleAdmin}."
      },
      "grantRole(bytes32,address)": {
        "details": "Grants `role` to `account`. If `account` had not been already granted `role`, emits a {RoleGranted} event. Requirements: - the caller must have ``role``'s admin role."
      },
      "hasRole(bytes32,address)": {
        "details": "Returns `true` if `account` has been granted `role`."
      },
      "increaseAllowance(address,uint256)": {
        "details": "Atomically increases the allowance granted to `spender` by the caller. This is an alternative to {approve} that can be used as a mitigation for problems described in {IERC20-approve}. Emits an {Approval} event indicating the updated allowance. Requirements: - `spender` cannot be the zero address."
      },
      "name()": {
        "details": "Returns the name of the token."
      },
      "renounceRole(bytes32,address)": {
        "details": "Revokes `role` from the calling account. Roles are often managed via {grantRole} and {revokeRole}: this function's purpose is to provide a mechanism for accounts to lose their privileges if they are compromised (such as when a trusted device is misplaced). If the calling account had been granted `role`, emits a {RoleRevoked} event. Requirements: - the caller must be `account`."
      },
      "revokeRole(bytes32,address)": {
        "details": "Revokes `role` from `account`. If `account` had been granted `role`, emits a {RoleRevoked} event. Requirements: - the caller must have ``role``'s admin role."
      },
      "supportsInterface(bytes4)": {
        "details": "See {IERC165-supportsInterface}."
      },
      "symbol()": {
        "details": "Returns the symbol of the token, usually a shorter version of the name."
      },
      "totalSupply()": {
        "details": "See {IERC20-totalSupply}."
      },
      "transfer(address,uint256)": {
        "details": "See {IERC20-transfer}. Requirements: - `recipient` cannot be the zero address. - the caller must have a balance of at least `amount`."
      },
      "transferFrom(address,address,uint256)": {
        "details": "See {IERC20-transferFrom}. Emits an {Approval} event indicating the updated allowance. This is not required by the EIP. See the note at the beginning of {ERC20}. Requirements: - `sender` and `recipient` cannot be the zero address. - `sender` must have a balance of at least `amount`. - the caller must have allowance for ``sender``'s tokens of at least `amount`."
      }
    },
    "version": 1
  },
  "userdoc": {
    "kind": "user",
    "methods": {},
    "version": 1
  }
}