{
  "contractName": "Staker",
  "abi": [
    {
      "inputs": [
        {
          "internalType": "address",
          "name": "_tokenA",
          "type": "address"
        },
        {
          "internalType": "address",
          "name": "_tokenB",
          "type": "address"
        },
        {
          "internalType": "uint256",
          "name": "_startTime",
          "type": "uint256"
        },
        {
          "internalType": "uint256",
          "name": "_endTime",
          "type": "uint256"
        }
      ],
      "stateMutability": "nonpayable",
      "type": "constructor"
    },
    {
      "anonymous": false,
      "inputs": [
        {
          "indexed": true,
          "internalType": "address",
          "name": "_user",
          "type": "address"
        },
        {
          "indexed": false,
          "internalType": "uint256",
          "name": "_amount",
          "type": "uint256"
        }
      ],
      "name": "ClaimedRewards",
      "type": "event"
    },
    {
      "anonymous": false,
      "inputs": [
        {
          "indexed": true,
          "internalType": "address",
          "name": "_user",
          "type": "address"
        },
        {
          "indexed": false,
          "internalType": "uint256",
          "name": "_amount",
          "type": "uint256"
        }
      ],
      "name": "Staking",
      "type": "event"
    },
    {
      "anonymous": false,
      "inputs": [
        {
          "indexed": true,
          "internalType": "address",
          "name": "_user",
          "type": "address"
        },
        {
          "indexed": false,
          "internalType": "uint256",
          "name": "_bal",
          "type": "uint256"
        },
        {
          "indexed": false,
          "internalType": "uint256",
          "name": "_reward",
          "type": "uint256"
        }
      ],
      "name": "UnStaked",
      "type": "event"
    },
    {
      "inputs": [],
      "name": "endTime",
      "outputs": [
        {
          "internalType": "uint256",
          "name": "",
          "type": "uint256"
        }
      ],
      "stateMutability": "view",
      "type": "function"
    },
    {
      "inputs": [
        {
          "internalType": "address",
          "name": "",
          "type": "address"
        }
      ],
      "name": "hasStaked",
      "outputs": [
        {
          "internalType": "bool",
          "name": "",
          "type": "bool"
        }
      ],
      "stateMutability": "view",
      "type": "function"
    },
    {
      "inputs": [
        {
          "internalType": "address",
          "name": "",
          "type": "address"
        }
      ],
      "name": "isStaking",
      "outputs": [
        {
          "internalType": "bool",
          "name": "",
          "type": "bool"
        }
      ],
      "stateMutability": "view",
      "type": "function"
    },
    {
      "inputs": [],
      "name": "name",
      "outputs": [
        {
          "internalType": "string",
          "name": "",
          "type": "string"
        }
      ],
      "stateMutability": "view",
      "type": "function"
    },
    {
      "inputs": [
        {
          "internalType": "address",
          "name": "",
          "type": "address"
        }
      ],
      "name": "rewardBalance",
      "outputs": [
        {
          "internalType": "uint256",
          "name": "",
          "type": "uint256"
        }
      ],
      "stateMutability": "view",
      "type": "function"
    },
    {
      "inputs": [],
      "name": "rewardToken",
      "outputs": [
        {
          "internalType": "address",
          "name": "",
          "type": "address"
        }
      ],
      "stateMutability": "view",
      "type": "function"
    },
    {
      "inputs": [],
      "name": "stakeToken",
      "outputs": [
        {
          "internalType": "address",
          "name": "",
          "type": "address"
        }
      ],
      "stateMutability": "view",
      "type": "function"
    },
    {
      "inputs": [
        {
          "internalType": "address",
          "name": "",
          "type": "address"
        }
      ],
      "name": "stakingBalance",
      "outputs": [
        {
          "internalType": "uint256",
          "name": "",
          "type": "uint256"
        }
      ],
      "stateMutability": "view",
      "type": "function"
    },
    {
      "inputs": [],
      "name": "startTime",
      "outputs": [
        {
          "internalType": "uint256",
          "name": "",
          "type": "uint256"
        }
      ],
      "stateMutability": "view",
      "type": "function"
    },
    {
      "inputs": [
        {
          "internalType": "address",
          "name": "",
          "type": "address"
        }
      ],
      "name": "startTimes",
      "outputs": [
        {
          "internalType": "uint256",
          "name": "",
          "type": "uint256"
        }
      ],
      "stateMutability": "view",
      "type": "function"
    },
    {
      "inputs": [
        {
          "internalType": "uint256",
          "name": "_amount",
          "type": "uint256"
        }
      ],
      "name": "stake",
      "outputs": [],
      "stateMutability": "nonpayable",
      "type": "function"
    },
    {
      "inputs": [],
      "name": "unstake",
      "outputs": [],
      "stateMutability": "nonpayable",
      "type": "function"
    },
    {
      "inputs": [
        {
          "internalType": "address",
          "name": "_addr",
          "type": "address"
        }
      ],
      "name": "calcRewardTime",
      "outputs": [
        {
          "internalType": "uint256",
          "name": "",
          "type": "uint256"
        }
      ],
      "stateMutability": "view",
      "type": "function"
    },
    {
      "inputs": [
        {
          "internalType": "address",
          "name": "_addr",
          "type": "address"
        }
      ],
      "name": "calcRewardTotal",
      "outputs": [
        {
          "internalType": "uint256",
          "name": "",
          "type": "uint256"
        }
      ],
      "stateMutability": "view",
      "type": "function"
    },
    {
      "inputs": [],
      "name": "claimRewards",
      "outputs": [],
      "stateMutability": "nonpayable",
      "type": "function"
    }
  ],
  "bytecode": "0x60806040526040518060400160405280600681526020017f5374616b6572000000000000000000000000000000000000000000000000000081525060009080519060200190620000519291906200011f565b503480156200005f57600080fd5b5060405162001b2b38038062001b2b8339818101604052810190620000859190620001fd565b83600160006101000a81548173ffffffffffffffffffffffffffffffffffffffff021916908373ffffffffffffffffffffffffffffffffffffffff16021790555082600260006101000a81548173ffffffffffffffffffffffffffffffffffffffff021916908373ffffffffffffffffffffffffffffffffffffffff1602179055508160038190555080600481905550505050506200034b565b8280546200012d90620002ad565b90600052602060002090601f0160209004810192826200015157600085556200019d565b82601f106200016c57805160ff19168380011785556200019d565b828001600101855582156200019d579182015b828111156200019c5782518255916020019190600101906200017f565b5b509050620001ac9190620001b0565b5090565b5b80821115620001cb576000816000905550600101620001b1565b5090565b600081519050620001e08162000317565b92915050565b600081519050620001f78162000331565b92915050565b600080600080608085870312156200021a576200021962000312565b5b60006200022a87828801620001cf565b94505060206200023d87828801620001cf565b93505060406200025087828801620001e6565b92505060606200026387828801620001e6565b91505092959194509250565b60006200027c8262000283565b9050919050565b600073ffffffffffffffffffffffffffffffffffffffff82169050919050565b6000819050919050565b60006002820490506001821680620002c657607f821691505b60208210811415620002dd57620002dc620002e3565b5b50919050565b7f4e487b7100000000000000000000000000000000000000000000000000000000600052602260045260246000fd5b600080fd5b62000322816200026f565b81146200032e57600080fd5b50565b6200033c81620002a3565b81146200034857600080fd5b50565b6117d0806200035b6000396000f3fe608060405234801561001057600080fd5b5060043610610112576000357c0100000000000000000000000000000000000000000000000000000000900480636f49712b116100b4578063a694fc3a11610083578063a694fc3a14610293578063c93c8f34146102af578063f53fd4ae146102df578063f7c618c11461030f57610112565b80636f49712b146101e557806378e979251461021557806395c79ff114610233578063a38b72691461026357610112565b8063372500ab116100f0578063372500ab1461015d57806345bc78ab1461016757806351ed6a301461019757806367b40cf7146101b557610112565b806306fdde03146101175780632def6620146101355780633197cbb61461013f575b600080fd5b61011f61032d565b60405161012c919061126c565b60405180910390f35b61013d6103bb565b005b6101476107b8565b604051610154919061134e565b60405180910390f35b6101656107be565b005b610181600480360381019061017c9190611017565b6109ea565b60405161018e919061134e565b60405180910390f35b61019f610a02565b6040516101ac91906111d6565b60405180910390f35b6101cf60048036038101906101ca9190611017565b610a28565b6040516101dc919061134e565b60405180910390f35b6101ff60048036038101906101fa9190611017565b610a40565b60405161020c9190611251565b60405180910390f35b61021d610a60565b60405161022a919061134e565b60405180910390f35b61024d60048036038101906102489190611017565b610a66565b60405161025a919061134e565b60405180910390f35b61027d60048036038101906102789190611017565b610ad5565b60405161028a919061134e565b60405180910390f35b6102ad60048036038101906102a89190611071565b610b77565b005b6102c960048036038101906102c49190611017565b610f64565b6040516102d69190611251565b60405180910390f35b6102f960048036038101906102f49190611017565b610f84565b604051610306919061134e565b60405180910390f35b610317610f9c565b60405161032491906111d6565b60405180910390f35b6000805461033a9061153e565b80601f01602080910402602001604051908101604052809291908181526020018280546103669061153e565b80156103b35780601f10610388576101008083540402835291602001916103b3565b820191906000526020600020905b81548152906001019060200180831161039657829003601f168201915b505050505081565b600760003373ffffffffffffffffffffffffffffffffffffffff1673ffffffffffffffffffffffffffffffffffffffff16815260200190815260200160002060009054906101000a900460ff16610447576040517f08c379a000000000000000000000000000000000000000000000000000000000815260040161043e906112ee565b60405180910390fd5b6000600560003373ffffffffffffffffffffffffffffffffffffffff1673ffffffffffffffffffffffffffffffffffffffff16815260200190815260200160002054116104c9576040517f08c379a00000000000000000000000000000000000000000000000000000000081526004016104c09061128e565b60405180910390fd5b60006104d433610ad5565b905060008111156104e8576104e76107be565b5b6000600160009054906101000a900473ffffffffffffffffffffffffffffffffffffffff1690508073ffffffffffffffffffffffffffffffffffffffff1663a9059cbb33600560003373ffffffffffffffffffffffffffffffffffffffff1673ffffffffffffffffffffffffffffffffffffffff168152602001908152602001600020546040518363ffffffff167c01000000000000000000000000000000000000000000000000000000000281526004016105a5929190611228565b602060405180830381600087803b1580156105bf57600080fd5b505af11580156105d3573d6000803e3d6000fd5b505050506040513d601f19601f820116820180604052508101906105f79190611044565b506000600560003373ffffffffffffffffffffffffffffffffffffffff1673ffffffffffffffffffffffffffffffffffffffff1681526020019081526020016000205490506000600760003373ffffffffffffffffffffffffffffffffffffffff1673ffffffffffffffffffffffffffffffffffffffff16815260200190815260200160002060006101000a81548160ff0219169083151502179055506000600860003373ffffffffffffffffffffffffffffffffffffffff1673ffffffffffffffffffffffffffffffffffffffff168152602001908152602001600020819055506000600660003373ffffffffffffffffffffffffffffffffffffffff1673ffffffffffffffffffffffffffffffffffffffff168152602001908152602001600020819055506000600560003373ffffffffffffffffffffffffffffffffffffffff1673ffffffffffffffffffffffffffffffffffffffff168152602001908152602001600020819055503373ffffffffffffffffffffffffffffffffffffffff167ff26c0304cc83daf500e1dc22ab2e3cf954b3d506d62e34d70cc054255079e39782856040516107ab929190611369565b60405180910390a2505050565b60045481565b600061081a600660003373ffffffffffffffffffffffffffffffffffffffff1673ffffffffffffffffffffffffffffffffffffffff1681526020019081526020016000205461080c33610ad5565b610fc290919063ffffffff16565b90506000811161085f576040517f08c379a0000000000000000000000000000000000000000000000000000000008152600401610856906112ae565b60405180910390fd5b6000600260009054906101000a900473ffffffffffffffffffffffffffffffffffffffff1690508073ffffffffffffffffffffffffffffffffffffffff166340c10f1933846040518363ffffffff167c01000000000000000000000000000000000000000000000000000000000281526004016108dd929190611228565b600060405180830381600087803b1580156108f757600080fd5b505af115801561090b573d6000803e3d6000fd5b505050506000600660003373ffffffffffffffffffffffffffffffffffffffff1673ffffffffffffffffffffffffffffffffffffffff1681526020019081526020016000208190555042600860003373ffffffffffffffffffffffffffffffffffffffff1673ffffffffffffffffffffffffffffffffffffffff168152602001908152602001600020819055503373ffffffffffffffffffffffffffffffffffffffff167f2d5429efdeca7741a8cd94067b18d988bc4e5f1d5b8272c37b7bfc31e9bfa32c836040516109de919061134e565b60405180910390a25050565b60056020528060005260406000206000915090505481565b600160009054906101000a900473ffffffffffffffffffffffffffffffffffffffff1681565b60066020528060005260406000206000915090505481565b60076020528060005260406000206000915054906101000a900460ff1681565b60035481565b600080429050600454811015610a7c5780610a80565b6004545b9050600860008473ffffffffffffffffffffffffffffffffffffffff1673ffffffffffffffffffffffffffffffffffffffff1681526020019081526020016000205481610acd919061148f565b915050919050565b60008068056bc75e2d631000009050600062015180905060008183610afa9190611404565b9050670de0b6b3a7640000600560008773ffffffffffffffffffffffffffffffffffffffff1673ffffffffffffffffffffffffffffffffffffffff16815260200190815260200160002054610b4f9190611404565b81610b5987610a66565b610b639190611435565b610b6d9190611435565b9350505050919050565b600354421015610bbc576040517f08c379a0000000000000000000000000000000000000000000000000000000008152600401610bb39061132e565b60405180910390fd5b600454421115610c01576040517f08c379a0000000000000000000000000000000000000000000000000000000008152600401610bf8906112ce565b60405180910390fd5b60008111610c44576040517f08c379a0000000000000000000000000000000000000000000000000000000008152600401610c3b9061130e565b60405180910390fd5b600760003373ffffffffffffffffffffffffffffffffffffffff1673ffffffffffffffffffffffffffffffffffffffff16815260200190815260200160002060009054906101000a900460ff1615610cf557610c9f33610ad5565b600660003373ffffffffffffffffffffffffffffffffffffffff1673ffffffffffffffffffffffffffffffffffffffff1681526020019081526020016000206000828254610ced91906113ae565b925050819055505b6000600160009054906101000a900473ffffffffffffffffffffffffffffffffffffffff1690508073ffffffffffffffffffffffffffffffffffffffff166323b872dd3330856040518463ffffffff167c0100000000000000000000000000000000000000000000000000000000028152600401610d75939291906111f1565b602060405180830381600087803b158015610d8f57600080fd5b505af1158015610da3573d6000803e3d6000fd5b505050506040513d601f19601f82011682018060405250810190610dc79190611044565b506001600760003373ffffffffffffffffffffffffffffffffffffffff1673ffffffffffffffffffffffffffffffffffffffff16815260200190815260200160002060006101000a81548160ff02191690831515021790555042600860003373ffffffffffffffffffffffffffffffffffffffff1673ffffffffffffffffffffffffffffffffffffffff1681526020019081526020016000208190555081600560003373ffffffffffffffffffffffffffffffffffffffff1673ffffffffffffffffffffffffffffffffffffffff1681526020019081526020016000206000828254610eb391906113ae565b925050819055506001600960003373ffffffffffffffffffffffffffffffffffffffff1673ffffffffffffffffffffffffffffffffffffffff16815260200190815260200160002060006101000a81548160ff0219169083151502179055503373ffffffffffffffffffffffffffffffffffffffff167fb831f69f1cebc12b23cd864ce5bfea2669d01956050a0147d71d418074559c2183604051610f58919061134e565b60405180910390a25050565b60096020528060005260406000206000915054906101000a900460ff1681565b60086020528060005260406000206000915090505481565b600260009054906101000a900473ffffffffffffffffffffffffffffffffffffffff1681565b60008183610fd091906113ae565b905092915050565b600081359050610fe781611755565b92915050565b600081519050610ffc8161176c565b92915050565b60008135905061101181611783565b92915050565b60006020828403121561102d5761102c6115fd565b5b600061103b84828501610fd8565b91505092915050565b60006020828403121561105a576110596115fd565b5b600061106884828501610fed565b91505092915050565b600060208284031215611087576110866115fd565b5b600061109584828501611002565b91505092915050565b6110a7816114c3565b82525050565b6110b6816114d5565b82525050565b60006110c782611392565b6110d1818561139d565b93506110e181856020860161150b565b6110ea81611602565b840191505092915050565b6000611102602a8361139d565b915061110d82611613565b604082019050919050565b600061112560178361139d565b915061113082611662565b602082019050919050565b600061114860188361139d565b91506111538261168b565b602082019050919050565b600061116b600e8361139d565b9150611176826116b4565b602082019050919050565b600061118e60308361139d565b9150611199826116dd565b604082019050919050565b60006111b160108361139d565b91506111bc8261172c565b602082019050919050565b6111d081611501565b82525050565b60006020820190506111eb600083018461109e565b92915050565b6000606082019050611206600083018661109e565b611213602083018561109e565b61122060408301846111c7565b949350505050565b600060408201905061123d600083018561109e565b61124a60208301846111c7565b9392505050565b600060208201905061126660008301846110ad565b92915050565b6000602082019050818103600083015261128681846110bc565b905092915050565b600060208201905081810360008301526112a7816110f5565b9050919050565b600060208201905081810360008301526112c781611118565b9050919050565b600060208201905081810360008301526112e78161113b565b9050919050565b600060208201905081810360008301526113078161115e565b9050919050565b6000602082019050818103600083015261132781611181565b9050919050565b60006020820190508181036000830152611347816111a4565b9050919050565b600060208201905061136360008301846111c7565b92915050565b600060408201905061137e60008301856111c7565b61138b60208301846111c7565b9392505050565b600081519050919050565b600082825260208201905092915050565b60006113b982611501565b91506113c483611501565b9250827fffffffffffffffffffffffffffffffffffffffffffffffffffffffffffffffff038211156113f9576113f8611570565b5b828201905092915050565b600061140f82611501565b915061141a83611501565b92508261142a5761142961159f565b5b828204905092915050565b600061144082611501565b915061144b83611501565b9250817fffffffffffffffffffffffffffffffffffffffffffffffffffffffffffffffff048311821515161561148457611483611570565b5b828202905092915050565b600061149a82611501565b91506114a583611501565b9250828210156114b8576114b7611570565b5b828203905092915050565b60006114ce826114e1565b9050919050565b60008115159050919050565b600073ffffffffffffffffffffffffffffffffffffffff82169050919050565b6000819050919050565b60005b8381101561152957808201518184015260208101905061150e565b83811115611538576000848401525b50505050565b6000600282049050600182168061155657607f821691505b6020821081141561156a576115696115ce565b5b50919050565b7f4e487b7100000000000000000000000000000000000000000000000000000000600052601160045260246000fd5b7f4e487b7100000000000000000000000000000000000000000000000000000000600052601260045260246000fd5b7f4e487b7100000000000000000000000000000000000000000000000000000000600052602260045260246000fd5b600080fd5b6000601f19601f8301169050919050565b7f4d75737420686176652061207374616b696e672062616c616e6365206772656160008201527f746572207468616e203000000000000000000000000000000000000000000000602082015250565b7f4e6f207265776172647320617420746869732074696d65000000000000000000600082015250565b7f506173736564207468652074696d6520746f207374616b650000000000000000600082015250565b7f4973206e6f74207374616b696e67000000000000000000000000000000000000600082015250565b7f4d757374207374616b65206d6f7265207468616e203020746f6b656e7320696e60008201527f206f7264657220746f20737465616b2e00000000000000000000000000000000602082015250565b7f4e6f742073746172746564207965742e00000000000000000000000000000000600082015250565b61175e816114c3565b811461176957600080fd5b50565b611775816114d5565b811461178057600080fd5b50565b61178c81611501565b811461179757600080fd5b5056fea264697066735822122045db706fb6c2760d798af8d294fdc631691bca5e0ab5c62f9113c1474de4b02164736f6c63430008070033",
  "immutableReferences": {},
  "source": "// SPDX-License-Identifier: MIT\npragma solidity >=0.4.22 <0.9.0;\n\nimport \"@openzeppelin/contracts/utils/math/SafeMath.sol\";\nimport \"@openzeppelin/contracts/token/ERC20/IERC20.sol\";\nimport \"./IToken.sol\";\n\ncontract Staker {\n  using SafeMath for uint;\n\n  string public name = \"Staker\";\n  address public stakeToken;\n  address public rewardToken;\n  uint public startTime;\n  uint public endTime;\n\n  mapping (address => uint) public stakingBalance;\n  mapping (address => uint) public rewardBalance;\n  mapping (address => bool) public isStaking;\n  mapping (address => uint) public startTimes;\n  mapping (address => bool) public hasStaked; //just a record if the user staked before or not\n\n  constructor(address _tokenA, address _tokenB, uint _startTime, uint _endTime) public {\n    stakeToken = _tokenA;\n    rewardToken = _tokenB;\n    startTime = _startTime;\n    endTime = _endTime;\n  }\n\n  modifier inStakeTime {\n    require(block.timestamp >= startTime, \"Not started yet.\");\n    require(block.timestamp <= endTime, \"Passed the time to stake\");\n    _;\n  }\n\n  event Staking(address indexed _user, uint _amount);\n  event UnStaked(address indexed _user, uint _bal, uint _reward);\n  event ClaimedRewards(address indexed _user, uint _amount);\n\n  function stake(uint _amount) external inStakeTime {\n    require(_amount > 0, \"Must stake more than 0 tokens in order to steak.\");\n\n    if (isStaking[msg.sender]) {\n      //caputure current amounts\n      rewardBalance[msg.sender] += calcRewardTotal(msg.sender);\n    }\n    IERC20 st = IERC20(stakeToken);\n    st.transferFrom(msg.sender, address(this), _amount);\n    isStaking[msg.sender] = true;\n    startTimes[msg.sender] = block.timestamp;\n    stakingBalance[msg.sender] += _amount;\n    hasStaked[msg.sender] = true;\n    emit Staking(msg.sender, _amount);\n  }\n\n  function unstake() external {\n    //this function will claim their rewards and transfer back their original tokens\n    require(isStaking[msg.sender], \"Is not staking\");\n    require(stakingBalance[msg.sender] > 0, \"Must have a staking balance greater than 0\");\n    uint rewards = calcRewardTotal(msg.sender);\n    if (rewards > 0) {\n      claimRewards();\n    }\n    IERC20 st = IERC20(stakeToken);\n    st.transfer(msg.sender, stakingBalance[msg.sender]);\n    uint bal = stakingBalance[msg.sender];\n    //clear out the vars\n    isStaking[msg.sender] = false;\n    startTimes[msg.sender] = 0;\n    rewardBalance[msg.sender] = 0;\n    stakingBalance[msg.sender] = 0;\n    //event\n    emit UnStaked(msg.sender, bal, rewards);\n  }\n\n  function calcRewardTime(address _addr) public view returns (uint) {\n    uint time = block.timestamp;\n    time = time >= endTime ? endTime : time;\n    return time - startTimes[_addr];\n  }\n\n  function calcRewardTotal(address _addr) public view returns (uint) {\n    /* NOTES FOR HOW TO CALCULATE REWARDS\n    A user can earn up to 100 tokens a day per token\n    100 = 100 * 10**18 =   100000000000000000000\n\n    how many seconds there are in a day\n    24*60*60 = 86400\n\n    convert the seconds to wei\n    86400 * 10**18 = 86400000000000000000000\n\n    so you would earn this many tokens per second\n    100000000000000000000 / 86400000000000000000000 = 0.00115740740740740740740740740741 tokens per second\n\n    so the formula would be\n    rate = 0.00115740740740740740740740740741 * 10**18 = 1157407407407407.4074074074074074\n    bal = current balance staked / 10**18\n    timeStaked = (currentTime - startTimeStaked)\n    rateTime = (timeStaked * rate)\n    rewards = rateTime * bal\n\n\n    Staking for 2 days with 1000 tokens\n    rate = 0.00115740740740740740740740740741 * 10**18 = 1157407407407407.4074074074074074\n    timeStaked = 86400*2 = 172800\n    bal = (1000 * 10**18) / 10**18\n    rateTime = (timeStaked * rate) = 200000000000000000000\n    rewards =  rateTime * bal = 200000000000000000000000\n\n    one-liner formula\n    rewards = ((timeStaked * rate) * (bal/10**18))\n    */\n    //100 tokens per day\n    uint earnPerDay = 100 * 10**18;\n    uint secondsPerDay = 60 * 60 * 24;\n    uint rate = earnPerDay / secondsPerDay;\n    return (calcRewardTime(_addr) * rate) * (stakingBalance[_addr]/10**18);\n  }\n\n  function claimRewards() public {\n    uint rewards = calcRewardTotal(msg.sender).add(rewardBalance[msg.sender]);\n    require(rewards > 0, \"No rewards at this time\");\n    IToken rt = IToken(rewardToken);\n    rt.mint(msg.sender, rewards);\n    rewardBalance[msg.sender] = 0;\n    startTimes[msg.sender] = block.timestamp;\n    emit ClaimedRewards(msg.sender, rewards);\n  }\n}\n",
  "sourcePath": "C:\\Users\\surge\\Desktop\\dapp-projects\\staker-demo\\contracts\\Staker.sol",
  "compiler": {
    "name": "solc",
    "version": "0.8.7+commit.e28d00a7.Emscripten.clang"
  },
  "schemaVersion": "3.4.3",
  "updatedAt": "2021-09-13T04:58:57.871Z",
  "devdoc": {
    "kind": "dev",
    "methods": {},
    "version": 1
  },
  "userdoc": {
    "kind": "user",
    "methods": {},
    "version": 1
  }
}