{
  "contractName": "StakerFactory",
  "abi": [
    {
      "anonymous": false,
      "inputs": [
        {
          "indexed": true,
          "internalType": "address",
          "name": "_token",
          "type": "address"
        },
        {
          "indexed": true,
          "internalType": "address",
          "name": "_user",
          "type": "address"
        },
        {
          "indexed": false,
          "internalType": "uint256",
          "name": "_amount",
          "type": "uint256"
        }
      ],
      "name": "FacetTokensToUser",
      "type": "event"
    },
    {
      "anonymous": false,
      "inputs": [
        {
          "indexed": true,
          "internalType": "address",
          "name": "previousOwner",
          "type": "address"
        },
        {
          "indexed": true,
          "internalType": "address",
          "name": "newOwner",
          "type": "address"
        }
      ],
      "name": "OwnershipTransferred",
      "type": "event"
    },
    {
      "inputs": [],
      "name": "FAUCET_AMOUNT",
      "outputs": [
        {
          "internalType": "uint256",
          "name": "",
          "type": "uint256"
        }
      ],
      "stateMutability": "view",
      "type": "function"
    },
    {
      "inputs": [],
      "name": "FAUCET_TIME",
      "outputs": [
        {
          "internalType": "uint256",
          "name": "",
          "type": "uint256"
        }
      ],
      "stateMutability": "view",
      "type": "function"
    },
    {
      "inputs": [
        {
          "internalType": "uint256",
          "name": "",
          "type": "uint256"
        }
      ],
      "name": "farms",
      "outputs": [
        {
          "internalType": "address",
          "name": "",
          "type": "address"
        }
      ],
      "stateMutability": "view",
      "type": "function"
    },
    {
      "inputs": [],
      "name": "owner",
      "outputs": [
        {
          "internalType": "address",
          "name": "",
          "type": "address"
        }
      ],
      "stateMutability": "view",
      "type": "function"
    },
    {
      "inputs": [],
      "name": "renounceOwnership",
      "outputs": [],
      "stateMutability": "nonpayable",
      "type": "function"
    },
    {
      "inputs": [],
      "name": "totalFarms",
      "outputs": [
        {
          "internalType": "uint256",
          "name": "",
          "type": "uint256"
        }
      ],
      "stateMutability": "view",
      "type": "function"
    },
    {
      "inputs": [
        {
          "internalType": "address",
          "name": "newOwner",
          "type": "address"
        }
      ],
      "name": "transferOwnership",
      "outputs": [],
      "stateMutability": "nonpayable",
      "type": "function"
    },
    {
      "inputs": [
        {
          "internalType": "address",
          "name": "_tokenA",
          "type": "address"
        },
        {
          "internalType": "address",
          "name": "_tokenB",
          "type": "address"
        },
        {
          "internalType": "uint256",
          "name": "startTime",
          "type": "uint256"
        },
        {
          "internalType": "uint256",
          "name": "endTime",
          "type": "uint256"
        }
      ],
      "name": "createFarm",
      "outputs": [],
      "stateMutability": "nonpayable",
      "type": "function"
    },
    {
      "inputs": [],
      "name": "getFarms",
      "outputs": [
        {
          "internalType": "contract Staker[]",
          "name": "",
          "type": "address[]"
        }
      ],
      "stateMutability": "view",
      "type": "function"
    },
    {
      "inputs": [
        {
          "internalType": "address",
          "name": "_tokenAddr",
          "type": "address"
        },
        {
          "internalType": "address",
          "name": "_user",
          "type": "address"
        }
      ],
      "name": "faucetTokens",
      "outputs": [],
      "stateMutability": "nonpayable",
      "type": "function"
    }
  ],
  "bytecode": "0x608060405262015180600455683635c9adc5dea0000060055534801561002457600080fd5b5061005361003f610058640100000000026401000000009004565b610060640100000000026401000000009004565b610124565b600033905090565b60008060009054906101000a900473ffffffffffffffffffffffffffffffffffffffff169050816000806101000a81548173ffffffffffffffffffffffffffffffffffffffff021916908373ffffffffffffffffffffffffffffffffffffffff1602179055508173ffffffffffffffffffffffffffffffffffffffff168173ffffffffffffffffffffffffffffffffffffffff167f8be0079c531659141344cd1fd0a4f28419497f9722a3daafe3b4186f6b6457e060405160405180910390a35050565b612d95806101336000396000f3fe60806040523480156200001157600080fd5b5060043610620000c9576000357c01000000000000000000000000000000000000000000000000000000009004806376697640116200008c57806376697640146200015e5780637da470ea14620001805780638da5cb5b14620001b65780639dc4ac8a14620001d8578063f2fde38b14620001fa57620000c9565b80634c995a7f14620000ce5780634febcb3414620000f0578063550c9fd714620001105780636bcfa4f91462000130578063715018a61462000152575b600080fd5b620000d86200021a565b604051620000e7919062000ef2565b60405180910390f35b6200010e600480360381019062000108919062000bb8565b62000220565b005b6200012e600480360381019062000128919062000b71565b6200035f565b005b6200013a620006d4565b60405162000149919062000ef2565b60405180910390f35b6200015c620006da565b005b620001686200076b565b60405162000177919062000ef2565b60405180910390f35b6200019e600480360381019062000198919062000c2a565b62000771565b604051620001ad919062000daf565b60405180910390f35b620001c0620007a4565b604051620001cf919062000daf565b60405180910390f35b620001e2620007cd565b604051620001f1919062000e46565b60405180910390f35b62000218600480360381019062000212919062000b0d565b620008d2565b005b60025481565b6200022a620009d6565b73ffffffffffffffffffffffffffffffffffffffff166200024a620007a4565b73ffffffffffffffffffffffffffffffffffffffff1614620002a3576040517f08c379a00000000000000000000000000000000000000000000000000000000081526004016200029a9062000eae565b60405180910390fd5b600084848484604051620002b79062000aba565b620002c6949392919062000dcc565b604051809103906000f080158015620002e3573d6000803e3d6000fd5b5090508060016000600254815260200190815260200160002060006101000a81548173ffffffffffffffffffffffffffffffffffffffff021916908373ffffffffffffffffffffffffffffffffffffffff160217905550620003526001600254620009de90919063ffffffff16565b6002819055505050505050565b6000600360008473ffffffffffffffffffffffffffffffffffffffff1673ffffffffffffffffffffffffffffffffffffffff16815260200190815260200160002060008373ffffffffffffffffffffffffffffffffffffffff1673ffffffffffffffffffffffffffffffffffffffff1681526020019081526020016000205490506000811480620003fe57504260045482620003fc919062000f59565b105b62000440576040517f08c379a0000000000000000000000000000000000000000000000000000000008152600401620004379062000ed0565b60405180910390fd5b42600360008573ffffffffffffffffffffffffffffffffffffffff1673ffffffffffffffffffffffffffffffffffffffff16815260200190815260200160002060008473ffffffffffffffffffffffffffffffffffffffff1673ffffffffffffffffffffffffffffffffffffffff1681526020019081526020016000208190555060008390503073ffffffffffffffffffffffffffffffffffffffff168173ffffffffffffffffffffffffffffffffffffffff16638da5cb5b6040518163ffffffff167c0100000000000000000000000000000000000000000000000000000000028152600401602060405180830381600087803b1580156200054257600080fd5b505af115801562000557573d6000803e3d6000fd5b505050506040513d601f19601f820116820180604052508101906200057d919062000b3f565b73ffffffffffffffffffffffffffffffffffffffff1614620005d6576040517f08c379a0000000000000000000000000000000000000000000000000000000008152600401620005cd9062000e8c565b60405180910390fd5b8073ffffffffffffffffffffffffffffffffffffffff166340c10f19846005546040518363ffffffff167c01000000000000000000000000000000000000000000000000000000000281526004016200063192919062000e19565b600060405180830381600087803b1580156200064c57600080fd5b505af115801562000661573d6000803e3d6000fd5b505050508273ffffffffffffffffffffffffffffffffffffffff168473ffffffffffffffffffffffffffffffffffffffff167fcb1e505bab937ab1f850d82a9b346a4546a066a458132dd1c22f7fb547b3d801600554604051620006c6919062000ef2565b60405180910390a350505050565b60045481565b620006e4620009d6565b73ffffffffffffffffffffffffffffffffffffffff1662000704620007a4565b73ffffffffffffffffffffffffffffffffffffffff16146200075d576040517f08c379a0000000000000000000000000000000000000000000000000000000008152600401620007549062000eae565b60405180910390fd5b620007696000620009f6565b565b60055481565b60016020528060005260406000206000915054906101000a900473ffffffffffffffffffffffffffffffffffffffff1681565b60008060009054906101000a900473ffffffffffffffffffffffffffffffffffffffff16905090565b6060600060025467ffffffffffffffff811115620007f057620007ef620010dc565b5b6040519080825280602002602001820160405280156200081f5781602001602082028036833780820191505090505b50905060005b600254811015620008ca576001600082815260200190815260200160002060009054906101000a900473ffffffffffffffffffffffffffffffffffffffff168282815181106200087a5762000879620010ad565b5b602002602001019073ffffffffffffffffffffffffffffffffffffffff16908173ffffffffffffffffffffffffffffffffffffffff16815250508080620008c19062001030565b91505062000825565b508091505090565b620008dc620009d6565b73ffffffffffffffffffffffffffffffffffffffff16620008fc620007a4565b73ffffffffffffffffffffffffffffffffffffffff161462000955576040517f08c379a00000000000000000000000000000000000000000000000000000000081526004016200094c9062000eae565b60405180910390fd5b600073ffffffffffffffffffffffffffffffffffffffff168173ffffffffffffffffffffffffffffffffffffffff161415620009c8576040517f08c379a0000000000000000000000000000000000000000000000000000000008152600401620009bf9062000e6a565b60405180910390fd5b620009d381620009f6565b50565b600033905090565b60008183620009ee919062000f59565b905092915050565b60008060009054906101000a900473ffffffffffffffffffffffffffffffffffffffff169050816000806101000a81548173ffffffffffffffffffffffffffffffffffffffff021916908373ffffffffffffffffffffffffffffffffffffffff1602179055508173ffffffffffffffffffffffffffffffffffffffff168173ffffffffffffffffffffffffffffffffffffffff167f8be0079c531659141344cd1fd0a4f28419497f9722a3daafe3b4186f6b6457e060405160405180910390a35050565b611b2b806200123583390190565b60008135905062000ad98162001200565b92915050565b60008151905062000af08162001200565b92915050565b60008135905062000b07816200121a565b92915050565b60006020828403121562000b265762000b256200110b565b5b600062000b368482850162000ac8565b91505092915050565b60006020828403121562000b585762000b576200110b565b5b600062000b688482850162000adf565b91505092915050565b6000806040838503121562000b8b5762000b8a6200110b565b5b600062000b9b8582860162000ac8565b925050602062000bae8582860162000ac8565b9150509250929050565b6000806000806080858703121562000bd55762000bd46200110b565b5b600062000be58782880162000ac8565b945050602062000bf88782880162000ac8565b935050604062000c0b8782880162000af6565b925050606062000c1e8782880162000af6565b91505092959194509250565b60006020828403121562000c435762000c426200110b565b5b600062000c538482850162000af6565b91505092915050565b600062000c6a838362000cf1565b60208301905092915050565b62000c818162000fb6565b82525050565b600062000c948262000f1f565b62000ca0818562000f37565b935062000cad8362000f0f565b8060005b8381101562000ce457815162000cc8888262000c5c565b975062000cd58362000f2a565b92505060018101905062000cb1565b5085935050505092915050565b62000cfc8162000ff4565b82525050565b600062000d1160268362000f48565b915062000d1e8262001110565b604082019050919050565b600062000d3860228362000f48565b915062000d45826200115f565b604082019050919050565b600062000d5f60208362000f48565b915062000d6c82620011ae565b602082019050919050565b600062000d86601e8362000f48565b915062000d9382620011d7565b602082019050919050565b62000da98162000fea565b82525050565b600060208201905062000dc6600083018462000c76565b92915050565b600060808201905062000de3600083018762000c76565b62000df2602083018662000c76565b62000e01604083018562000d9e565b62000e10606083018462000d9e565b95945050505050565b600060408201905062000e30600083018562000c76565b62000e3f602083018462000d9e565b9392505050565b6000602082019050818103600083015262000e62818462000c87565b905092915050565b6000602082019050818103600083015262000e858162000d02565b9050919050565b6000602082019050818103600083015262000ea78162000d29565b9050919050565b6000602082019050818103600083015262000ec98162000d50565b9050919050565b6000602082019050818103600083015262000eeb8162000d77565b9050919050565b600060208201905062000f09600083018462000d9e565b92915050565b6000819050602082019050919050565b600081519050919050565b6000602082019050919050565b600082825260208201905092915050565b600082825260208201905092915050565b600062000f668262000fea565b915062000f738362000fea565b9250827fffffffffffffffffffffffffffffffffffffffffffffffffffffffffffffffff0382111562000fab5762000faa6200107e565b5b828201905092915050565b600062000fc38262000fca565b9050919050565b600073ffffffffffffffffffffffffffffffffffffffff82169050919050565b6000819050919050565b6000620010018262001008565b9050919050565b600062001015826200101c565b9050919050565b6000620010298262000fca565b9050919050565b60006200103d8262000fea565b91507fffffffffffffffffffffffffffffffffffffffffffffffffffffffffffffffff8214156200107357620010726200107e565b5b600182019050919050565b7f4e487b7100000000000000000000000000000000000000000000000000000000600052601160045260246000fd5b7f4e487b7100000000000000000000000000000000000000000000000000000000600052603260045260246000fd5b7f4e487b7100000000000000000000000000000000000000000000000000000000600052604160045260246000fd5b600080fd5b7f4f776e61626c653a206e6577206f776e657220697320746865207a65726f206160008201527f6464726573730000000000000000000000000000000000000000000000000000602082015250565b7f43616e6e6f742066617563657420746865736520746f6b656e7320746f20757360008201527f6572000000000000000000000000000000000000000000000000000000000000602082015250565b7f4f776e61626c653a2063616c6c6572206973206e6f7420746865206f776e6572600082015250565b7f596f752063616e6e6f7420676574206d6f726520746f6b656e73206e6f770000600082015250565b6200120b8162000fb6565b81146200121757600080fd5b50565b620012258162000fea565b81146200123157600080fd5b5056fe60806040526040518060400160405280600681526020017f5374616b6572000000000000000000000000000000000000000000000000000081525060009080519060200190620000519291906200011f565b503480156200005f57600080fd5b5060405162001b2b38038062001b2b8339818101604052810190620000859190620001fd565b83600160006101000a81548173ffffffffffffffffffffffffffffffffffffffff021916908373ffffffffffffffffffffffffffffffffffffffff16021790555082600260006101000a81548173ffffffffffffffffffffffffffffffffffffffff021916908373ffffffffffffffffffffffffffffffffffffffff1602179055508160038190555080600481905550505050506200034b565b8280546200012d90620002ad565b90600052602060002090601f0160209004810192826200015157600085556200019d565b82601f106200016c57805160ff19168380011785556200019d565b828001600101855582156200019d579182015b828111156200019c5782518255916020019190600101906200017f565b5b509050620001ac9190620001b0565b5090565b5b80821115620001cb576000816000905550600101620001b1565b5090565b600081519050620001e08162000317565b92915050565b600081519050620001f78162000331565b92915050565b600080600080608085870312156200021a576200021962000312565b5b60006200022a87828801620001cf565b94505060206200023d87828801620001cf565b93505060406200025087828801620001e6565b92505060606200026387828801620001e6565b91505092959194509250565b60006200027c8262000283565b9050919050565b600073ffffffffffffffffffffffffffffffffffffffff82169050919050565b6000819050919050565b60006002820490506001821680620002c657607f821691505b60208210811415620002dd57620002dc620002e3565b5b50919050565b7f4e487b7100000000000000000000000000000000000000000000000000000000600052602260045260246000fd5b600080fd5b62000322816200026f565b81146200032e57600080fd5b50565b6200033c81620002a3565b81146200034857600080fd5b50565b6117d0806200035b6000396000f3fe608060405234801561001057600080fd5b5060043610610112576000357c0100000000000000000000000000000000000000000000000000000000900480636f49712b116100b4578063a694fc3a11610083578063a694fc3a14610293578063c93c8f34146102af578063f53fd4ae146102df578063f7c618c11461030f57610112565b80636f49712b146101e557806378e979251461021557806395c79ff114610233578063a38b72691461026357610112565b8063372500ab116100f0578063372500ab1461015d57806345bc78ab1461016757806351ed6a301461019757806367b40cf7146101b557610112565b806306fdde03146101175780632def6620146101355780633197cbb61461013f575b600080fd5b61011f61032d565b60405161012c919061126c565b60405180910390f35b61013d6103bb565b005b6101476107b8565b604051610154919061134e565b60405180910390f35b6101656107be565b005b610181600480360381019061017c9190611017565b6109ea565b60405161018e919061134e565b60405180910390f35b61019f610a02565b6040516101ac91906111d6565b60405180910390f35b6101cf60048036038101906101ca9190611017565b610a28565b6040516101dc919061134e565b60405180910390f35b6101ff60048036038101906101fa9190611017565b610a40565b60405161020c9190611251565b60405180910390f35b61021d610a60565b60405161022a919061134e565b60405180910390f35b61024d60048036038101906102489190611017565b610a66565b60405161025a919061134e565b60405180910390f35b61027d60048036038101906102789190611017565b610ad5565b60405161028a919061134e565b60405180910390f35b6102ad60048036038101906102a89190611071565b610b77565b005b6102c960048036038101906102c49190611017565b610f64565b6040516102d69190611251565b60405180910390f35b6102f960048036038101906102f49190611017565b610f84565b604051610306919061134e565b60405180910390f35b610317610f9c565b60405161032491906111d6565b60405180910390f35b6000805461033a9061153e565b80601f01602080910402602001604051908101604052809291908181526020018280546103669061153e565b80156103b35780601f10610388576101008083540402835291602001916103b3565b820191906000526020600020905b81548152906001019060200180831161039657829003601f168201915b505050505081565b600760003373ffffffffffffffffffffffffffffffffffffffff1673ffffffffffffffffffffffffffffffffffffffff16815260200190815260200160002060009054906101000a900460ff16610447576040517f08c379a000000000000000000000000000000000000000000000000000000000815260040161043e906112ee565b60405180910390fd5b6000600560003373ffffffffffffffffffffffffffffffffffffffff1673ffffffffffffffffffffffffffffffffffffffff16815260200190815260200160002054116104c9576040517f08c379a00000000000000000000000000000000000000000000000000000000081526004016104c09061128e565b60405180910390fd5b60006104d433610ad5565b905060008111156104e8576104e76107be565b5b6000600160009054906101000a900473ffffffffffffffffffffffffffffffffffffffff1690508073ffffffffffffffffffffffffffffffffffffffff1663a9059cbb33600560003373ffffffffffffffffffffffffffffffffffffffff1673ffffffffffffffffffffffffffffffffffffffff168152602001908152602001600020546040518363ffffffff167c01000000000000000000000000000000000000000000000000000000000281526004016105a5929190611228565b602060405180830381600087803b1580156105bf57600080fd5b505af11580156105d3573d6000803e3d6000fd5b505050506040513d601f19601f820116820180604052508101906105f79190611044565b506000600560003373ffffffffffffffffffffffffffffffffffffffff1673ffffffffffffffffffffffffffffffffffffffff1681526020019081526020016000205490506000600760003373ffffffffffffffffffffffffffffffffffffffff1673ffffffffffffffffffffffffffffffffffffffff16815260200190815260200160002060006101000a81548160ff0219169083151502179055506000600860003373ffffffffffffffffffffffffffffffffffffffff1673ffffffffffffffffffffffffffffffffffffffff168152602001908152602001600020819055506000600660003373ffffffffffffffffffffffffffffffffffffffff1673ffffffffffffffffffffffffffffffffffffffff168152602001908152602001600020819055506000600560003373ffffffffffffffffffffffffffffffffffffffff1673ffffffffffffffffffffffffffffffffffffffff168152602001908152602001600020819055503373ffffffffffffffffffffffffffffffffffffffff167ff26c0304cc83daf500e1dc22ab2e3cf954b3d506d62e34d70cc054255079e39782856040516107ab929190611369565b60405180910390a2505050565b60045481565b600061081a600660003373ffffffffffffffffffffffffffffffffffffffff1673ffffffffffffffffffffffffffffffffffffffff1681526020019081526020016000205461080c33610ad5565b610fc290919063ffffffff16565b90506000811161085f576040517f08c379a0000000000000000000000000000000000000000000000000000000008152600401610856906112ae565b60405180910390fd5b6000600260009054906101000a900473ffffffffffffffffffffffffffffffffffffffff1690508073ffffffffffffffffffffffffffffffffffffffff166340c10f1933846040518363ffffffff167c01000000000000000000000000000000000000000000000000000000000281526004016108dd929190611228565b600060405180830381600087803b1580156108f757600080fd5b505af115801561090b573d6000803e3d6000fd5b505050506000600660003373ffffffffffffffffffffffffffffffffffffffff1673ffffffffffffffffffffffffffffffffffffffff1681526020019081526020016000208190555042600860003373ffffffffffffffffffffffffffffffffffffffff1673ffffffffffffffffffffffffffffffffffffffff168152602001908152602001600020819055503373ffffffffffffffffffffffffffffffffffffffff167f2d5429efdeca7741a8cd94067b18d988bc4e5f1d5b8272c37b7bfc31e9bfa32c836040516109de919061134e565b60405180910390a25050565b60056020528060005260406000206000915090505481565b600160009054906101000a900473ffffffffffffffffffffffffffffffffffffffff1681565b60066020528060005260406000206000915090505481565b60076020528060005260406000206000915054906101000a900460ff1681565b60035481565b600080429050600454811015610a7c5780610a80565b6004545b9050600860008473ffffffffffffffffffffffffffffffffffffffff1673ffffffffffffffffffffffffffffffffffffffff1681526020019081526020016000205481610acd919061148f565b915050919050565b60008068056bc75e2d631000009050600062015180905060008183610afa9190611404565b9050670de0b6b3a7640000600560008773ffffffffffffffffffffffffffffffffffffffff1673ffffffffffffffffffffffffffffffffffffffff16815260200190815260200160002054610b4f9190611404565b81610b5987610a66565b610b639190611435565b610b6d9190611435565b9350505050919050565b600354421015610bbc576040517f08c379a0000000000000000000000000000000000000000000000000000000008152600401610bb39061132e565b60405180910390fd5b600454421115610c01576040517f08c379a0000000000000000000000000000000000000000000000000000000008152600401610bf8906112ce565b60405180910390fd5b60008111610c44576040517f08c379a0000000000000000000000000000000000000000000000000000000008152600401610c3b9061130e565b60405180910390fd5b600760003373ffffffffffffffffffffffffffffffffffffffff1673ffffffffffffffffffffffffffffffffffffffff16815260200190815260200160002060009054906101000a900460ff1615610cf557610c9f33610ad5565b600660003373ffffffffffffffffffffffffffffffffffffffff1673ffffffffffffffffffffffffffffffffffffffff1681526020019081526020016000206000828254610ced91906113ae565b925050819055505b6000600160009054906101000a900473ffffffffffffffffffffffffffffffffffffffff1690508073ffffffffffffffffffffffffffffffffffffffff166323b872dd3330856040518463ffffffff167c0100000000000000000000000000000000000000000000000000000000028152600401610d75939291906111f1565b602060405180830381600087803b158015610d8f57600080fd5b505af1158015610da3573d6000803e3d6000fd5b505050506040513d601f19601f82011682018060405250810190610dc79190611044565b506001600760003373ffffffffffffffffffffffffffffffffffffffff1673ffffffffffffffffffffffffffffffffffffffff16815260200190815260200160002060006101000a81548160ff02191690831515021790555042600860003373ffffffffffffffffffffffffffffffffffffffff1673ffffffffffffffffffffffffffffffffffffffff1681526020019081526020016000208190555081600560003373ffffffffffffffffffffffffffffffffffffffff1673ffffffffffffffffffffffffffffffffffffffff1681526020019081526020016000206000828254610eb391906113ae565b925050819055506001600960003373ffffffffffffffffffffffffffffffffffffffff1673ffffffffffffffffffffffffffffffffffffffff16815260200190815260200160002060006101000a81548160ff0219169083151502179055503373ffffffffffffffffffffffffffffffffffffffff167fb831f69f1cebc12b23cd864ce5bfea2669d01956050a0147d71d418074559c2183604051610f58919061134e565b60405180910390a25050565b60096020528060005260406000206000915054906101000a900460ff1681565b60086020528060005260406000206000915090505481565b600260009054906101000a900473ffffffffffffffffffffffffffffffffffffffff1681565b60008183610fd091906113ae565b905092915050565b600081359050610fe781611755565b92915050565b600081519050610ffc8161176c565b92915050565b60008135905061101181611783565b92915050565b60006020828403121561102d5761102c6115fd565b5b600061103b84828501610fd8565b91505092915050565b60006020828403121561105a576110596115fd565b5b600061106884828501610fed565b91505092915050565b600060208284031215611087576110866115fd565b5b600061109584828501611002565b91505092915050565b6110a7816114c3565b82525050565b6110b6816114d5565b82525050565b60006110c782611392565b6110d1818561139d565b93506110e181856020860161150b565b6110ea81611602565b840191505092915050565b6000611102602a8361139d565b915061110d82611613565b604082019050919050565b600061112560178361139d565b915061113082611662565b602082019050919050565b600061114860188361139d565b91506111538261168b565b602082019050919050565b600061116b600e8361139d565b9150611176826116b4565b602082019050919050565b600061118e60308361139d565b9150611199826116dd565b604082019050919050565b60006111b160108361139d565b91506111bc8261172c565b602082019050919050565b6111d081611501565b82525050565b60006020820190506111eb600083018461109e565b92915050565b6000606082019050611206600083018661109e565b611213602083018561109e565b61122060408301846111c7565b949350505050565b600060408201905061123d600083018561109e565b61124a60208301846111c7565b9392505050565b600060208201905061126660008301846110ad565b92915050565b6000602082019050818103600083015261128681846110bc565b905092915050565b600060208201905081810360008301526112a7816110f5565b9050919050565b600060208201905081810360008301526112c781611118565b9050919050565b600060208201905081810360008301526112e78161113b565b9050919050565b600060208201905081810360008301526113078161115e565b9050919050565b6000602082019050818103600083015261132781611181565b9050919050565b60006020820190508181036000830152611347816111a4565b9050919050565b600060208201905061136360008301846111c7565b92915050565b600060408201905061137e60008301856111c7565b61138b60208301846111c7565b9392505050565b600081519050919050565b600082825260208201905092915050565b60006113b982611501565b91506113c483611501565b9250827fffffffffffffffffffffffffffffffffffffffffffffffffffffffffffffffff038211156113f9576113f8611570565b5b828201905092915050565b600061140f82611501565b915061141a83611501565b92508261142a5761142961159f565b5b828204905092915050565b600061144082611501565b915061144b83611501565b9250817fffffffffffffffffffffffffffffffffffffffffffffffffffffffffffffffff048311821515161561148457611483611570565b5b828202905092915050565b600061149a82611501565b91506114a583611501565b9250828210156114b8576114b7611570565b5b828203905092915050565b60006114ce826114e1565b9050919050565b60008115159050919050565b600073ffffffffffffffffffffffffffffffffffffffff82169050919050565b6000819050919050565b60005b8381101561152957808201518184015260208101905061150e565b83811115611538576000848401525b50505050565b6000600282049050600182168061155657607f821691505b6020821081141561156a576115696115ce565b5b50919050565b7f4e487b7100000000000000000000000000000000000000000000000000000000600052601160045260246000fd5b7f4e487b7100000000000000000000000000000000000000000000000000000000600052601260045260246000fd5b7f4e487b7100000000000000000000000000000000000000000000000000000000600052602260045260246000fd5b600080fd5b6000601f19601f8301169050919050565b7f4d75737420686176652061207374616b696e672062616c616e6365206772656160008201527f746572207468616e203000000000000000000000000000000000000000000000602082015250565b7f4e6f207265776172647320617420746869732074696d65000000000000000000600082015250565b7f506173736564207468652074696d6520746f207374616b650000000000000000600082015250565b7f4973206e6f74207374616b696e67000000000000000000000000000000000000600082015250565b7f4d757374207374616b65206d6f7265207468616e203020746f6b656e7320696e60008201527f206f7264657220746f20737465616b2e00000000000000000000000000000000602082015250565b7f4e6f742073746172746564207965742e00000000000000000000000000000000600082015250565b61175e816114c3565b811461176957600080fd5b50565b611775816114d5565b811461178057600080fd5b50565b61178c81611501565b811461179757600080fd5b5056fea264697066735822122045db706fb6c2760d798af8d294fdc631691bca5e0ab5c62f9113c1474de4b02164736f6c63430008070033a2646970667358221220d01525ef7944db13a1d4b3757334a8ebf5a54965a48f01108067044bea6eac4a64736f6c63430008070033",
  "immutableReferences": {},
  "source": "// SPDX-License-Identifier: MIT\npragma solidity >=0.4.22 <0.9.0;\n\nimport \"@openzeppelin/contracts/access/Ownable.sol\";\nimport \"@openzeppelin/contracts/utils/math/SafeMath.sol\";\nimport \"@openzeppelin/contracts/token/ERC20/IERC20.sol\";\nimport \"./Staker.sol\";\n//import \"./IToken.sol\";\n\ncontract StakerFactory is Ownable {\n  using SafeMath for uint;\n\n  //a farm is when you can add a token and get rewards\n  mapping (uint => address) public farms;\n  uint public totalFarms;\n  mapping(address => mapping(address => uint)) faucetTimes;\n  uint public FAUCET_TIME = 1 days; //you can only grab x amount in a day\n  uint public FAUCET_AMOUNT = 1000 ether; //this is how many tokens they get\n\n  event FacetTokensToUser(address indexed _token, address indexed _user, uint _amount);\n\n  function createFarm(address _tokenA, address _tokenB, uint startTime, uint endTime) public onlyOwner {\n    //TOKEN B MUST BE OWNED BY THE CONTRACT! OR HAS PERMISSIONS TO APPROVE OTHER CONTRACTS TO MINT TOKENS\n    Staker staker = new Staker(_tokenA, _tokenB, startTime, endTime);\n    farms[totalFarms] = address(staker);\n    //add permissions for the reward token to mint tokens for the reward\n\n    totalFarms = totalFarms.add(1);\n  }\n\n  function getFarms() view public returns(Staker[] memory) {\n    Staker[] memory ret = new Staker[](totalFarms);\n    for(uint i = 0; i < totalFarms; i++) {\n      ret[i] = Staker(farms[i]);\n    }\n    return ret;\n  }\n\n  function faucetTokens(address _tokenAddr, address _user) external {\n    //first check how much time past since last called\n    uint lastTime = faucetTimes[_tokenAddr][_user];\n    require (lastTime == 0 || (lastTime + FAUCET_TIME) < block.timestamp, \"You cannot get more tokens now\");\n    faucetTimes[_tokenAddr][_user] = block.timestamp;\n    IToken _token = IToken(_tokenAddr);\n    require(_token.owner() == address(this), \"Cannot faucet these tokens to user\");\n    // uint bal = _token.balanceOf(address(this));\n    // require(bal >= FAUCET_AMOUNT, \"Does not have enough tokens to provide you with.\");\n    //now send them the tokens\n    _token.mint(_user, FAUCET_AMOUNT);\n    //send event\n    emit FacetTokensToUser(_tokenAddr, _user, FAUCET_AMOUNT);\n  }\n}\n",
  "sourcePath": "C:\\Users\\surge\\Desktop\\dapp-projects\\staker-demo\\contracts\\StakerFactory.sol",
  "compiler": {
    "name": "solc",
    "version": "0.8.7+commit.e28d00a7.Emscripten.clang"
  },
  "schemaVersion": "3.4.3",
  "updatedAt": "2021-09-13T04:58:57.887Z",
  "devdoc": {
    "kind": "dev",
    "methods": {
      "owner()": {
        "details": "Returns the address of the current owner."
      },
      "renounceOwnership()": {
        "details": "Leaves the contract without owner. It will not be possible to call `onlyOwner` functions anymore. Can only be called by the current owner. NOTE: Renouncing ownership will leave the contract without an owner, thereby removing any functionality that is only available to the owner."
      },
      "transferOwnership(address)": {
        "details": "Transfers ownership of the contract to a new account (`newOwner`). Can only be called by the current owner."
      }
    },
    "version": 1
  },
  "userdoc": {
    "kind": "user",
    "methods": {},
    "version": 1
  }
}